{
  "contracts/Poll.sol": {
    "Poll": {
      "abi": [
        {
          "inputs": [
            {
              "internalType": "uint256",
              "name": "_owner",
              "type": "uint256"
            },
            {
              "internalType": "uint256",
              "name": "_eventId",
              "type": "uint256"
            },
            {
              "internalType": "uint256",
              "name": "_totalNumVoter",
              "type": "uint256"
            },
            {
              "internalType": "uint256",
              "name": "_numBallotPerVoter",
              "type": "uint256"
            },
            {
              "components": [
                {
                  "internalType": "bytes32",
                  "name": "id",
                  "type": "bytes32"
                },
                {
                  "internalType": "bool",
                  "name": "voted",
                  "type": "bool"
                },
                {
                  "internalType": "uint256[]",
                  "name": "votedFor",
                  "type": "uint256[]"
                },
                {
                  "internalType": "bool",
                  "name": "exists",
                  "type": "bool"
                }
              ],
              "internalType": "struct Poll.Voter[]",
              "name": "_voters",
              "type": "tuple[]"
            },
            {
              "components": [
                {
                  "internalType": "uint256",
                  "name": "id",
                  "type": "uint256"
                },
                {
                  "internalType": "bytes32",
                  "name": "name",
                  "type": "bytes32"
                },
                {
                  "internalType": "uint256",
                  "name": "voteNumGet",
                  "type": "uint256"
                },
                {
                  "internalType": "bool",
                  "name": "isWinner",
                  "type": "bool"
                },
                {
                  "internalType": "bool",
                  "name": "exists",
                  "type": "bool"
                }
              ],
              "internalType": "struct Poll.Candidate[]",
              "name": "_candidates",
              "type": "tuple[]"
            },
            {
              "internalType": "bool",
              "name": "_isAnonymous",
              "type": "bool"
            }
          ],
          "stateMutability": "nonpayable",
          "type": "constructor"
        },
        {
          "inputs": [
            {
              "internalType": "uint256",
              "name": "adminID",
              "type": "uint256"
            }
          ],
          "name": "endVote",
          "outputs": [],
          "stateMutability": "nonpayable",
          "type": "function"
        },
        {
          "inputs": [],
          "name": "getAllVoterDetails",
          "outputs": [
            {
              "components": [
                {
                  "internalType": "bytes32",
                  "name": "id",
                  "type": "bytes32"
                },
                {
                  "internalType": "bool",
                  "name": "voted",
                  "type": "bool"
                },
                {
                  "internalType": "uint256[]",
                  "name": "votedFor",
                  "type": "uint256[]"
                },
                {
                  "internalType": "bool",
                  "name": "exists",
                  "type": "bool"
                }
              ],
              "internalType": "struct Poll.Voter[]",
              "name": "",
              "type": "tuple[]"
            },
            {
              "internalType": "bytes32[][]",
              "name": "candidateNames",
              "type": "bytes32[][]"
            }
          ],
          "stateMutability": "view",
          "type": "function"
        },
        {
          "inputs": [
            {
              "internalType": "uint256",
              "name": "candidateId",
              "type": "uint256"
            }
          ],
          "name": "getCandidateInfo",
          "outputs": [
            {
              "components": [
                {
                  "internalType": "uint256",
                  "name": "id",
                  "type": "uint256"
                },
                {
                  "internalType": "bytes32",
                  "name": "name",
                  "type": "bytes32"
                },
                {
                  "internalType": "uint256",
                  "name": "voteNumGet",
                  "type": "uint256"
                },
                {
                  "internalType": "bool",
                  "name": "isWinner",
                  "type": "bool"
                },
                {
                  "internalType": "bool",
                  "name": "exists",
                  "type": "bool"
                }
              ],
              "internalType": "struct Poll.Candidate",
              "name": "",
              "type": "tuple"
            }
          ],
          "stateMutability": "view",
          "type": "function"
        },
        {
          "inputs": [],
          "name": "getInfo",
          "outputs": [
            {
              "internalType": "bool",
              "name": "",
              "type": "bool"
            },
            {
              "internalType": "uint256",
              "name": "",
              "type": "uint256"
            },
            {
              "internalType": "uint256",
              "name": "",
              "type": "uint256"
            },
            {
              "internalType": "uint256",
              "name": "",
              "type": "uint256"
            },
            {
              "internalType": "bool",
              "name": "",
              "type": "bool"
            }
          ],
          "stateMutability": "view",
          "type": "function"
        },
        {
          "inputs": [
            {
              "internalType": "bytes32",
              "name": "voterId",
              "type": "bytes32"
            }
          ],
          "name": "getVoterInfo",
          "outputs": [
            {
              "components": [
                {
                  "internalType": "bytes32",
                  "name": "id",
                  "type": "bytes32"
                },
                {
                  "internalType": "bool",
                  "name": "voted",
                  "type": "bool"
                },
                {
                  "internalType": "uint256[]",
                  "name": "votedFor",
                  "type": "uint256[]"
                },
                {
                  "internalType": "bool",
                  "name": "exists",
                  "type": "bool"
                }
              ],
              "internalType": "struct Poll.Voter",
              "name": "",
              "type": "tuple"
            },
            {
              "components": [
                {
                  "internalType": "uint256",
                  "name": "id",
                  "type": "uint256"
                },
                {
                  "internalType": "bytes32",
                  "name": "name",
                  "type": "bytes32"
                },
                {
                  "internalType": "uint256",
                  "name": "voteNumGet",
                  "type": "uint256"
                },
                {
                  "internalType": "bool",
                  "name": "isWinner",
                  "type": "bool"
                },
                {
                  "internalType": "bool",
                  "name": "exists",
                  "type": "bool"
                }
              ],
              "internalType": "struct Poll.Candidate[]",
              "name": "",
              "type": "tuple[]"
            }
          ],
          "stateMutability": "view",
          "type": "function"
        },
        {
          "inputs": [],
          "name": "getWinner",
          "outputs": [
            {
              "internalType": "uint256",
              "name": "",
              "type": "uint256"
            },
            {
              "components": [
                {
                  "internalType": "uint256",
                  "name": "id",
                  "type": "uint256"
                },
                {
                  "internalType": "bytes32",
                  "name": "name",
                  "type": "bytes32"
                },
                {
                  "internalType": "uint256",
                  "name": "voteNumGet",
                  "type": "uint256"
                },
                {
                  "internalType": "bool",
                  "name": "isWinner",
                  "type": "bool"
                },
                {
                  "internalType": "bool",
                  "name": "exists",
                  "type": "bool"
                }
              ],
              "internalType": "struct Poll.Candidate",
              "name": "",
              "type": "tuple"
            }
          ],
          "stateMutability": "view",
          "type": "function"
        },
        {
          "inputs": [
            {
              "internalType": "uint256[]",
              "name": "candidatesID",
              "type": "uint256[]"
            },
            {
              "internalType": "bytes32",
              "name": "voterID",
              "type": "bytes32"
            }
          ],
          "name": "vote",
          "outputs": [],
          "stateMutability": "nonpayable",
          "type": "function"
        }
      ],
      "evm": {
        "bytecode": {
          "linkReferences": {},
          "object": "60806040523480156200001157600080fd5b5060405162002561380380620025618339818101604052810190620000379190620008d1565b866000819055506000600a8190555085600181905550846006819055508360078190555060005b82518110156200012757600383828151811062000080576200007f620009c2565b5b6020026020010151908060018154018082558091505060019003906000526020600020906004020160009091909190915060008201518160000155602082015181600101556040820151816002015560608201518160030160006101000a81548160ff02191690831515021790555060808201518160030160016101000a81548160ff021916908315150217905550505080806200011e9062000a20565b9150506200005e565b5060005b83518110156200025a5760008482815181106200014d576200014c620009c2565b5b6020026020010151600001519050848281518110620001715762000170620009c2565b5b6020026020010151600460008381526020019081526020016000206000820151816000015560208201518160010160006101000a81548160ff0219169083151502179055506040820151816002019080519060200190620001d49291906200030e565b5060608201518160030160006101000a81548160ff02191690831515021790555090505060016004600083815260200190815260200160002060030160006101000a81548160ff0219169083151502179055506001600a60008282546200023c919062000a6e565b92505081905550508080620002519062000a20565b9150506200012b565b5080600860006101000a81548160ff02191690831515021790555060001515600860009054906101000a900460ff1615151415620003015760005b8351811015620002ff57600b848281518110620002b757620002b6620009c2565b5b60200260200101516000015190806001815401808255809150506001900390600052602060002001600090919091909150558080620002f69062000a20565b91505062000295565b505b5050505050505062000acb565b8280548282559060005260206000209081019282156200034d579160200282015b828111156200034c5782518255916020019190600101906200032f565b5b5090506200035c919062000360565b5090565b5b808211156200037b57600081600090555060010162000361565b5090565b6000604051905090565b600080fd5b600080fd5b6000819050919050565b620003a88162000393565b8114620003b457600080fd5b50565b600081519050620003c8816200039d565b92915050565b600080fd5b6000601f19601f8301169050919050565b7f4e487b7100000000000000000000000000000000000000000000000000000000600052604160045260246000fd5b6200041e82620003d3565b810181811067ffffffffffffffff8211171562000440576200043f620003e4565b5b80604052505050565b6000620004556200037f565b905062000463828262000413565b919050565b600067ffffffffffffffff821115620004865762000485620003e4565b5b602082029050602081019050919050565b600080fd5b600080fd5b600080fd5b6000819050919050565b620004bb81620004a6565b8114620004c757600080fd5b50565b600081519050620004db81620004b0565b92915050565b60008115159050919050565b620004f881620004e1565b81146200050457600080fd5b50565b6000815190506200051881620004ed565b92915050565b600067ffffffffffffffff8211156200053c576200053b620003e4565b5b602082029050602081019050919050565b6000620005646200055e846200051e565b62000449565b905080838252602082019050602084028301858111156200058a576200058962000497565b5b835b81811015620005b75780620005a28882620003b7565b8452602084019350506020810190506200058c565b5050509392505050565b600082601f830112620005d957620005d8620003ce565b5b8151620005eb8482602086016200054d565b91505092915050565b6000608082840312156200060d576200060c6200049c565b5b62000619608062000449565b905060006200062b84828501620004ca565b6000830152506020620006418482850162000507565b602083015250604082015167ffffffffffffffff811115620006685762000667620004a1565b5b6200067684828501620005c1565b60408301525060606200068c8482850162000507565b60608301525092915050565b6000620006af620006a98462000468565b62000449565b90508083825260208201905060208402830185811115620006d557620006d462000497565b5b835b818110156200072357805167ffffffffffffffff811115620006fe57620006fd620003ce565b5b8086016200070d8982620005f4565b85526020850194505050602081019050620006d7565b5050509392505050565b600082601f830112620007455762000744620003ce565b5b81516200075784826020860162000698565b91505092915050565b600067ffffffffffffffff8211156200077e576200077d620003e4565b5b602082029050602081019050919050565b600060a08284031215620007a857620007a76200049c565b5b620007b460a062000449565b90506000620007c684828501620003b7565b6000830152506020620007dc84828501620004ca565b6020830152506040620007f284828501620003b7565b6040830152506060620008088482850162000507565b60608301525060806200081e8482850162000507565b60808301525092915050565b6000620008416200083b8462000760565b62000449565b90508083825260208201905060a0840283018581111562000867576200086662000497565b5b835b818110156200089457806200087f88826200078f565b84526020840193505060a08101905062000869565b5050509392505050565b600082601f830112620008b657620008b5620003ce565b5b8151620008c88482602086016200082a565b91505092915050565b600080600080600080600060e0888a031215620008f357620008f262000389565b5b6000620009038a828b01620003b7565b9750506020620009168a828b01620003b7565b9650506040620009298a828b01620003b7565b95505060606200093c8a828b01620003b7565b945050608088015167ffffffffffffffff81111562000960576200095f6200038e565b5b6200096e8a828b016200072d565b93505060a088015167ffffffffffffffff8111156200099257620009916200038e565b5b620009a08a828b016200089e565b92505060c0620009b38a828b0162000507565b91505092959891949750929550565b7f4e487b7100000000000000000000000000000000000000000000000000000000600052603260045260246000fd5b7f4e487b7100000000000000000000000000000000000000000000000000000000600052601160045260246000fd5b600062000a2d8262000393565b91507fffffffffffffffffffffffffffffffffffffffffffffffffffffffffffffffff82141562000a635762000a62620009f1565b5b600182019050919050565b600062000a7b8262000393565b915062000a888362000393565b9250827fffffffffffffffffffffffffffffffffffffffffffffffffffffffffffffffff0382111562000ac05762000abf620009f1565b5b828201905092915050565b611a868062000adb6000396000f3fe608060405234801561001057600080fd5b506004361061007d5760003560e01c8063865df0ad1161005b578063865df0ad146101055780638e7ea5b21461012157806392bcab3414610140578063ddbf695a1461015f5761007d565b80635a9b0b89146100825780636b959c81146100a457806370f67cfe146100d5575b600080fd5b61008a61017b565b60405161009b959493929190610d34565b60405180910390f35b6100be60048036038101906100b99190610dd1565b6101bd565b6040516100cc929190611054565b60405180910390f35b6100ef60048036038101906100ea91906110b7565b61040d565b6040516100fc919061114c565b60405180910390f35b61011f600480360381019061011a91906110b7565b6104e7565b005b610129610668565b604051610137929190611167565b60405180910390f35b610148610752565b604051610156929190611426565b60405180910390f35b610179600480360381019061017491906115b6565b610abc565b005b6000806000806000600260009054906101000a900460ff16600554600654600754600860009054906101000a900460ff16945094509450945094509091929394565b6101c5610c31565b6060600060046000858152602001908152602001600020604051806080016040529081600082015481526020016001820160009054906101000a900460ff161515151581526020016002820180548060200260200160405190810160405280929190818152602001828054801561025b57602002820191906000526020600020905b815481526020019060010190808311610247575b505050505081526020016003820160009054906101000a900460ff16151515158152505090506000600a5467ffffffffffffffff81111561029f5761029e611473565b5b6040519080825280602002602001820160405280156102d857816020015b6102c5610c60565b8152602001906001900390816102bd5790505b50905060005b8260400151518110156103bb5760038360400151828151811061030457610303611612565b5b60200260200101518154811061031d5761031c611612565b5b90600052602060002090600402016040518060a00160405290816000820154815260200160018201548152602001600282015481526020016003820160009054906101000a900460ff161515151581526020016003820160019054906101000a900460ff16151515158152505082828151811061039d5761039c611612565b5b602002602001018190525080806103b390611670565b9150506102de565b508160600151610400576040517f08c379a00000000000000000000000000000000000000000000000000000000081526004016103f790611716565b60405180910390fd5b8181935093505050915091565b610415610c60565b60006003838154811061042b5761042a611612565b5b90600052602060002090600402016040518060a00160405290816000820154815260200160018201548152602001600282015481526020016003820160009054906101000a900460ff161515151581526020016003820160019054906101000a900460ff161515151581525050905080608001516104de576040517f08c379a00000000000000000000000000000000000000000000000000000000081526004016104d590611782565b60405180910390fd5b80915050919050565b600260009054906101000a900460ff1615610537576040517f08c379a000000000000000000000000000000000000000000000000000000000815260040161052e906117ee565b60405180910390fd5b600054811461057b576040517f08c379a00000000000000000000000000000000000000000000000000000000081526004016105729061185a565b60405180910390fd5b6001600260006101000a81548160ff02191690831515021790555060008060098190555060005b600380549050811015610663576000600382815481106105c5576105c4611612565b5b90600052602060002090600402016040518060a00160405290816000820154815260200160018201548152602001600282015481526020016003820160009054906101000a900460ff161515151581526020016003820160019054906101000a900460ff1615151515815250509050828160400151111561064f5780604001519250816009819055505b50808061065b90611670565b9150506105a2565b505050565b6000610672610c60565b600260009054906101000a900460ff166106c1576040517f08c379a00000000000000000000000000000000000000000000000000000000081526004016106b8906118c6565b60405180910390fd5b6009546003600954815481106106da576106d9611612565b5b9060005260206000209060040201806040518060a00160405290816000820154815260200160018201548152602001600282015481526020016003820160009054906101000a900460ff161515151581526020016003820160019054906101000a900460ff1615151515815250509050915091509091565b606080600860009054906101000a900460ff16156107a5576040517f08c379a000000000000000000000000000000000000000000000000000000000815260040161079c90611958565b60405180910390fd5b6000600a5467ffffffffffffffff8111156107c3576107c2611473565b5b6040519080825280602002602001820160405280156107fc57816020015b6107e9610c31565b8152602001906001900390816107e15790505b5090506000600a5467ffffffffffffffff81111561081d5761081c611473565b5b60405190808252806020026020018201604052801561085057816020015b606081526020019060019003908161083b5790505b50905060005b600b80549050811015610aaf5760046000600b838154811061087b5761087a611612565b5b90600052602060002001548152602001908152602001600020604051806080016040529081600082015481526020016001820160009054906101000a900460ff161515151581526020016002820180548060200260200160405190810160405280929190818152602001828054801561091357602002820191906000526020600020905b8154815260200190600101908083116108ff575b505050505081526020016003820160009054906101000a900460ff16151515158152505083828151811061094a57610949611612565b5b6020026020010181905250600083828151811061096a57610969611612565b5b6020026020010151604001515167ffffffffffffffff8111156109905761098f611473565b5b6040519080825280602002602001820160405280156109be5781602001602082028036833780820191505090505b50905060005b8483815181106109d7576109d6611612565b5b60200260200101516040015151811015610a7b576003858481518110610a00576109ff611612565b5b6020026020010151604001518281518110610a1e57610a1d611612565b5b602002602001015181548110610a3757610a36611612565b5b906000526020600020906004020160010154828281518110610a5c57610a5b611612565b5b6020026020010181815250508080610a7390611670565b9150506109c4565b5080838381518110610a9057610a8f611612565b5b6020026020010181905250508080610aa790611670565b915050610856565b5081819350935050509091565b6004600082815260200190815260200160002060030160009054906101000a900460ff16610b1f576040517f08c379a0000000000000000000000000000000000000000000000000000000008152600401610b16906119c4565b60405180910390fd5b6004600082815260200190815260200160002060010160009054906101000a900460ff1615610b83576040517f08c379a0000000000000000000000000000000000000000000000000000000008152600401610b7a90611a30565b60405180910390fd5b600260009054906101000a900460ff1615610bd3576040517f08c379a0000000000000000000000000000000000000000000000000000000008152600401610bca906117ee565b60405180910390fd5b81600460008381526020019081526020016000206002019080519060200190610bfd929190610c96565b5060016004600083815260200190815260200160002060010160006101000a81548160ff0219169083151502179055505050565b604051806080016040528060008019168152602001600015158152602001606081526020016000151581525090565b6040518060a001604052806000815260200160008019168152602001600081526020016000151581526020016000151581525090565b828054828255906000526020600020908101928215610cd2579160200282015b82811115610cd1578251825591602001919060010190610cb6565b5b509050610cdf9190610ce3565b5090565b5b80821115610cfc576000816000905550600101610ce4565b5090565b60008115159050919050565b610d1581610d00565b82525050565b6000819050919050565b610d2e81610d1b565b82525050565b600060a082019050610d496000830188610d0c565b610d566020830187610d25565b610d636040830186610d25565b610d706060830185610d25565b610d7d6080830184610d0c565b9695505050505050565b6000604051905090565b600080fd5b600080fd5b6000819050919050565b610dae81610d9b565b8114610db957600080fd5b50565b600081359050610dcb81610da5565b92915050565b600060208284031215610de757610de6610d91565b5b6000610df584828501610dbc565b91505092915050565b610e0781610d9b565b82525050565b610e1681610d00565b82525050565b600081519050919050565b600082825260208201905092915050565b6000819050602082019050919050565b610e5181610d1b565b82525050565b6000610e638383610e48565b60208301905092915050565b6000602082019050919050565b6000610e8782610e1c565b610e918185610e27565b9350610e9c83610e38565b8060005b83811015610ecd578151610eb48882610e57565b9750610ebf83610e6f565b925050600181019050610ea0565b5085935050505092915050565b6000608083016000830151610ef26000860182610dfe565b506020830151610f056020860182610e0d565b5060408301518482036040860152610f1d8282610e7c565b9150506060830151610f326060860182610e0d565b508091505092915050565b600081519050919050565b600082825260208201905092915050565b6000819050602082019050919050565b60a082016000820151610f7f6000850182610e48565b506020820151610f926020850182610dfe565b506040820151610fa56040850182610e48565b506060820151610fb86060850182610e0d565b506080820151610fcb6080850182610e0d565b50505050565b6000610fdd8383610f69565b60a08301905092915050565b6000602082019050919050565b600061100182610f3d565b61100b8185610f48565b935061101683610f59565b8060005b8381101561104757815161102e8882610fd1565b975061103983610fe9565b92505060018101905061101a565b5085935050505092915050565b6000604082019050818103600083015261106e8185610eda565b905081810360208301526110828184610ff6565b90509392505050565b61109481610d1b565b811461109f57600080fd5b50565b6000813590506110b18161108b565b92915050565b6000602082840312156110cd576110cc610d91565b5b60006110db848285016110a2565b91505092915050565b60a0820160008201516110fa6000850182610e48565b50602082015161110d6020850182610dfe565b5060408201516111206040850182610e48565b5060608201516111336060850182610e0d565b5060808201516111466080850182610e0d565b50505050565b600060a08201905061116160008301846110e4565b92915050565b600060c08201905061117c6000830185610d25565b61118960208301846110e4565b9392505050565b600081519050919050565b600082825260208201905092915050565b6000819050602082019050919050565b60006080830160008301516111d46000860182610dfe565b5060208301516111e76020860182610e0d565b50604083015184820360408601526111ff8282610e7c565b91505060608301516112146060860182610e0d565b508091505092915050565b600061122b83836111bc565b905092915050565b6000602082019050919050565b600061124b82611190565b611255818561119b565b935083602082028501611267856111ac565b8060005b858110156112a35784840389528151611284858261121f565b945061128f83611233565b925060208a0199505060018101905061126b565b50829750879550505050505092915050565b600081519050919050565b600082825260208201905092915050565b6000819050602082019050919050565b600081519050919050565b600082825260208201905092915050565b6000819050602082019050919050565b60006113198383610dfe565b60208301905092915050565b6000602082019050919050565b600061133d826112e1565b61134781856112ec565b9350611352836112fd565b8060005b8381101561138357815161136a888261130d565b975061137583611325565b925050600181019050611356565b5085935050505092915050565b600061139c8383611332565b905092915050565b6000602082019050919050565b60006113bc826112b5565b6113c681856112c0565b9350836020820285016113d8856112d1565b8060005b8581101561141457848403895281516113f58582611390565b9450611400836113a4565b925060208a019950506001810190506113dc565b50829750879550505050505092915050565b600060408201905081810360008301526114408185611240565b9050818103602083015261145481846113b1565b90509392505050565b600080fd5b6000601f19601f8301169050919050565b7f4e487b7100000000000000000000000000000000000000000000000000000000600052604160045260246000fd5b6114ab82611462565b810181811067ffffffffffffffff821117156114ca576114c9611473565b5b80604052505050565b60006114dd610d87565b90506114e982826114a2565b919050565b600067ffffffffffffffff82111561150957611508611473565b5b602082029050602081019050919050565b600080fd5b600061153261152d846114ee565b6114d3565b905080838252602082019050602084028301858111156115555761155461151a565b5b835b8181101561157e578061156a88826110a2565b845260208401935050602081019050611557565b5050509392505050565b600082601f83011261159d5761159c61145d565b5b81356115ad84826020860161151f565b91505092915050565b600080604083850312156115cd576115cc610d91565b5b600083013567ffffffffffffffff8111156115eb576115ea610d96565b5b6115f785828601611588565b925050602061160885828601610dbc565b9150509250929050565b7f4e487b7100000000000000000000000000000000000000000000000000000000600052603260045260246000fd5b7f4e487b7100000000000000000000000000000000000000000000000000000000600052601160045260246000fd5b600061167b82610d1b565b91507fffffffffffffffffffffffffffffffffffffffffffffffffffffffffffffffff8214156116ae576116ad611641565b5b600182019050919050565b600082825260208201905092915050565b7f566f74657220646f6573206e6f74206578697374000000000000000000000000600082015250565b60006117006014836116b9565b915061170b826116ca565b602082019050919050565b6000602082019050818103600083015261172f816116f3565b9050919050565b7f43616e64696461746520646f6573206e6f742065786973740000000000000000600082015250565b600061176c6018836116b9565b915061177782611736565b602082019050919050565b6000602082019050818103600083015261179b8161175f565b9050919050565b7f566f74696e672068617320616c72656164792066696e69736865642100000000600082015250565b60006117d8601c836116b9565b91506117e3826117a2565b602082019050919050565b60006020820190508181036000830152611807816117cb565b9050919050565b7f4f6e6c792063726561746f722063616e2073746f702074686520766f74652100600082015250565b6000611844601f836116b9565b915061184f8261180e565b602082019050919050565b6000602082019050818103600083015261187381611837565b9050919050565b7f566f74696e67206973206e6f7420636f6d706c65746564207965742100000000600082015250565b60006118b0601c836116b9565b91506118bb8261187a565b602082019050919050565b600060208201905081810360008301526118df816118a3565b9050919050565b7f616e6f6e796d6f75732064657461696c7320617265206e6f742076697369626c60008201527f652e000000000000000000000000000000000000000000000000000000000000602082015250565b60006119426022836116b9565b915061194d826118e6565b604082019050919050565b6000602082019050818103600083015261197181611935565b9050919050565b7f43616e6e6f742066696e6420766f746572210000000000000000000000000000600082015250565b60006119ae6012836116b9565b91506119b982611978565b602082019050919050565b600060208201905081810360008301526119dd816119a1565b9050919050565b7f566f7465722068617320616c726561647920766f746564210000000000000000600082015250565b6000611a1a6018836116b9565b9150611a25826119e4565b602082019050919050565b60006020820190508181036000830152611a4981611a0d565b905091905056fea2646970667358221220647bb9ac45ef665186aa8666d9327f3dd9b71faae26183c5cc78b60db096868764736f6c634300080a0033",
          "opcodes": "PUSH1 0x80 PUSH1 0x40 MSTORE CALLVALUE DUP1 ISZERO PUSH3 0x11 JUMPI PUSH1 0x0 DUP1 REVERT JUMPDEST POP PUSH1 0x40 MLOAD PUSH3 0x2561 CODESIZE SUB DUP1 PUSH3 0x2561 DUP4 CODECOPY DUP2 DUP2 ADD PUSH1 0x40 MSTORE DUP2 ADD SWAP1 PUSH3 0x37 SWAP2 SWAP1 PUSH3 0x8D1 JUMP JUMPDEST DUP7 PUSH1 0x0 DUP2 SWAP1 SSTORE POP PUSH1 0x0 PUSH1 0xA DUP2 SWAP1 SSTORE POP DUP6 PUSH1 0x1 DUP2 SWAP1 SSTORE POP DUP5 PUSH1 0x6 DUP2 SWAP1 SSTORE POP DUP4 PUSH1 0x7 DUP2 SWAP1 SSTORE POP PUSH1 0x0 JUMPDEST DUP3 MLOAD DUP2 LT ISZERO PUSH3 0x127 JUMPI PUSH1 0x3 DUP4 DUP3 DUP2 MLOAD DUP2 LT PUSH3 0x80 JUMPI PUSH3 0x7F PUSH3 0x9C2 JUMP JUMPDEST JUMPDEST PUSH1 0x20 MUL PUSH1 0x20 ADD ADD MLOAD SWAP1 DUP1 PUSH1 0x1 DUP2 SLOAD ADD DUP1 DUP3 SSTORE DUP1 SWAP2 POP POP PUSH1 0x1 SWAP1 SUB SWAP1 PUSH1 0x0 MSTORE PUSH1 0x20 PUSH1 0x0 KECCAK256 SWAP1 PUSH1 0x4 MUL ADD PUSH1 0x0 SWAP1 SWAP2 SWAP1 SWAP2 SWAP1 SWAP2 POP PUSH1 0x0 DUP3 ADD MLOAD DUP2 PUSH1 0x0 ADD SSTORE PUSH1 0x20 DUP3 ADD MLOAD DUP2 PUSH1 0x1 ADD SSTORE PUSH1 0x40 DUP3 ADD MLOAD DUP2 PUSH1 0x2 ADD SSTORE PUSH1 0x60 DUP3 ADD MLOAD DUP2 PUSH1 0x3 ADD PUSH1 0x0 PUSH2 0x100 EXP DUP2 SLOAD DUP2 PUSH1 0xFF MUL NOT AND SWAP1 DUP4 ISZERO ISZERO MUL OR SWAP1 SSTORE POP PUSH1 0x80 DUP3 ADD MLOAD DUP2 PUSH1 0x3 ADD PUSH1 0x1 PUSH2 0x100 EXP DUP2 SLOAD DUP2 PUSH1 0xFF MUL NOT AND SWAP1 DUP4 ISZERO ISZERO MUL OR SWAP1 SSTORE POP POP POP DUP1 DUP1 PUSH3 0x11E SWAP1 PUSH3 0xA20 JUMP JUMPDEST SWAP2 POP POP PUSH3 0x5E JUMP JUMPDEST POP PUSH1 0x0 JUMPDEST DUP4 MLOAD DUP2 LT ISZERO PUSH3 0x25A JUMPI PUSH1 0x0 DUP5 DUP3 DUP2 MLOAD DUP2 LT PUSH3 0x14D JUMPI PUSH3 0x14C PUSH3 0x9C2 JUMP JUMPDEST JUMPDEST PUSH1 0x20 MUL PUSH1 0x20 ADD ADD MLOAD PUSH1 0x0 ADD MLOAD SWAP1 POP DUP5 DUP3 DUP2 MLOAD DUP2 LT PUSH3 0x171 JUMPI PUSH3 0x170 PUSH3 0x9C2 JUMP JUMPDEST JUMPDEST PUSH1 0x20 MUL PUSH1 0x20 ADD ADD MLOAD PUSH1 0x4 PUSH1 0x0 DUP4 DUP2 MSTORE PUSH1 0x20 ADD SWAP1 DUP2 MSTORE PUSH1 0x20 ADD PUSH1 0x0 KECCAK256 PUSH1 0x0 DUP3 ADD MLOAD DUP2 PUSH1 0x0 ADD SSTORE PUSH1 0x20 DUP3 ADD MLOAD DUP2 PUSH1 0x1 ADD PUSH1 0x0 PUSH2 0x100 EXP DUP2 SLOAD DUP2 PUSH1 0xFF MUL NOT AND SWAP1 DUP4 ISZERO ISZERO MUL OR SWAP1 SSTORE POP PUSH1 0x40 DUP3 ADD MLOAD DUP2 PUSH1 0x2 ADD SWAP1 DUP1 MLOAD SWAP1 PUSH1 0x20 ADD SWAP1 PUSH3 0x1D4 SWAP3 SWAP2 SWAP1 PUSH3 0x30E JUMP JUMPDEST POP PUSH1 0x60 DUP3 ADD MLOAD DUP2 PUSH1 0x3 ADD PUSH1 0x0 PUSH2 0x100 EXP DUP2 SLOAD DUP2 PUSH1 0xFF MUL NOT AND SWAP1 DUP4 ISZERO ISZERO MUL OR SWAP1 SSTORE POP SWAP1 POP POP PUSH1 0x1 PUSH1 0x4 PUSH1 0x0 DUP4 DUP2 MSTORE PUSH1 0x20 ADD SWAP1 DUP2 MSTORE PUSH1 0x20 ADD PUSH1 0x0 KECCAK256 PUSH1 0x3 ADD PUSH1 0x0 PUSH2 0x100 EXP DUP2 SLOAD DUP2 PUSH1 0xFF MUL NOT AND SWAP1 DUP4 ISZERO ISZERO MUL OR SWAP1 SSTORE POP PUSH1 0x1 PUSH1 0xA PUSH1 0x0 DUP3 DUP3 SLOAD PUSH3 0x23C SWAP2 SWAP1 PUSH3 0xA6E JUMP JUMPDEST SWAP3 POP POP DUP2 SWAP1 SSTORE POP POP DUP1 DUP1 PUSH3 0x251 SWAP1 PUSH3 0xA20 JUMP JUMPDEST SWAP2 POP POP PUSH3 0x12B JUMP JUMPDEST POP DUP1 PUSH1 0x8 PUSH1 0x0 PUSH2 0x100 EXP DUP2 SLOAD DUP2 PUSH1 0xFF MUL NOT AND SWAP1 DUP4 ISZERO ISZERO MUL OR SWAP1 SSTORE POP PUSH1 0x0 ISZERO ISZERO PUSH1 0x8 PUSH1 0x0 SWAP1 SLOAD SWAP1 PUSH2 0x100 EXP SWAP1 DIV PUSH1 0xFF AND ISZERO ISZERO EQ ISZERO PUSH3 0x301 JUMPI PUSH1 0x0 JUMPDEST DUP4 MLOAD DUP2 LT ISZERO PUSH3 0x2FF JUMPI PUSH1 0xB DUP5 DUP3 DUP2 MLOAD DUP2 LT PUSH3 0x2B7 JUMPI PUSH3 0x2B6 PUSH3 0x9C2 JUMP JUMPDEST JUMPDEST PUSH1 0x20 MUL PUSH1 0x20 ADD ADD MLOAD PUSH1 0x0 ADD MLOAD SWAP1 DUP1 PUSH1 0x1 DUP2 SLOAD ADD DUP1 DUP3 SSTORE DUP1 SWAP2 POP POP PUSH1 0x1 SWAP1 SUB SWAP1 PUSH1 0x0 MSTORE PUSH1 0x20 PUSH1 0x0 KECCAK256 ADD PUSH1 0x0 SWAP1 SWAP2 SWAP1 SWAP2 SWAP1 SWAP2 POP SSTORE DUP1 DUP1 PUSH3 0x2F6 SWAP1 PUSH3 0xA20 JUMP JUMPDEST SWAP2 POP POP PUSH3 0x295 JUMP JUMPDEST POP JUMPDEST POP POP POP POP POP POP POP PUSH3 0xACB JUMP JUMPDEST DUP3 DUP1 SLOAD DUP3 DUP3 SSTORE SWAP1 PUSH1 0x0 MSTORE PUSH1 0x20 PUSH1 0x0 KECCAK256 SWAP1 DUP2 ADD SWAP3 DUP3 ISZERO PUSH3 0x34D JUMPI SWAP2 PUSH1 0x20 MUL DUP3 ADD JUMPDEST DUP3 DUP2 GT ISZERO PUSH3 0x34C JUMPI DUP3 MLOAD DUP3 SSTORE SWAP2 PUSH1 0x20 ADD SWAP2 SWAP1 PUSH1 0x1 ADD SWAP1 PUSH3 0x32F JUMP JUMPDEST JUMPDEST POP SWAP1 POP PUSH3 0x35C SWAP2 SWAP1 PUSH3 0x360 JUMP JUMPDEST POP SWAP1 JUMP JUMPDEST JUMPDEST DUP1 DUP3 GT ISZERO PUSH3 0x37B JUMPI PUSH1 0x0 DUP2 PUSH1 0x0 SWAP1 SSTORE POP PUSH1 0x1 ADD PUSH3 0x361 JUMP JUMPDEST POP SWAP1 JUMP JUMPDEST PUSH1 0x0 PUSH1 0x40 MLOAD SWAP1 POP SWAP1 JUMP JUMPDEST PUSH1 0x0 DUP1 REVERT JUMPDEST PUSH1 0x0 DUP1 REVERT JUMPDEST PUSH1 0x0 DUP2 SWAP1 POP SWAP2 SWAP1 POP JUMP JUMPDEST PUSH3 0x3A8 DUP2 PUSH3 0x393 JUMP JUMPDEST DUP2 EQ PUSH3 0x3B4 JUMPI PUSH1 0x0 DUP1 REVERT JUMPDEST POP JUMP JUMPDEST PUSH1 0x0 DUP2 MLOAD SWAP1 POP PUSH3 0x3C8 DUP2 PUSH3 0x39D JUMP JUMPDEST SWAP3 SWAP2 POP POP JUMP JUMPDEST PUSH1 0x0 DUP1 REVERT JUMPDEST PUSH1 0x0 PUSH1 0x1F NOT PUSH1 0x1F DUP4 ADD AND SWAP1 POP SWAP2 SWAP1 POP JUMP JUMPDEST PUSH32 0x4E487B7100000000000000000000000000000000000000000000000000000000 PUSH1 0x0 MSTORE PUSH1 0x41 PUSH1 0x4 MSTORE PUSH1 0x24 PUSH1 0x0 REVERT JUMPDEST PUSH3 0x41E DUP3 PUSH3 0x3D3 JUMP JUMPDEST DUP2 ADD DUP2 DUP2 LT PUSH8 0xFFFFFFFFFFFFFFFF DUP3 GT OR ISZERO PUSH3 0x440 JUMPI PUSH3 0x43F PUSH3 0x3E4 JUMP JUMPDEST JUMPDEST DUP1 PUSH1 0x40 MSTORE POP POP POP JUMP JUMPDEST PUSH1 0x0 PUSH3 0x455 PUSH3 0x37F JUMP JUMPDEST SWAP1 POP PUSH3 0x463 DUP3 DUP3 PUSH3 0x413 JUMP JUMPDEST SWAP2 SWAP1 POP JUMP JUMPDEST PUSH1 0x0 PUSH8 0xFFFFFFFFFFFFFFFF DUP3 GT ISZERO PUSH3 0x486 JUMPI PUSH3 0x485 PUSH3 0x3E4 JUMP JUMPDEST JUMPDEST PUSH1 0x20 DUP3 MUL SWAP1 POP PUSH1 0x20 DUP2 ADD SWAP1 POP SWAP2 SWAP1 POP JUMP JUMPDEST PUSH1 0x0 DUP1 REVERT JUMPDEST PUSH1 0x0 DUP1 REVERT JUMPDEST PUSH1 0x0 DUP1 REVERT JUMPDEST PUSH1 0x0 DUP2 SWAP1 POP SWAP2 SWAP1 POP JUMP JUMPDEST PUSH3 0x4BB DUP2 PUSH3 0x4A6 JUMP JUMPDEST DUP2 EQ PUSH3 0x4C7 JUMPI PUSH1 0x0 DUP1 REVERT JUMPDEST POP JUMP JUMPDEST PUSH1 0x0 DUP2 MLOAD SWAP1 POP PUSH3 0x4DB DUP2 PUSH3 0x4B0 JUMP JUMPDEST SWAP3 SWAP2 POP POP JUMP JUMPDEST PUSH1 0x0 DUP2 ISZERO ISZERO SWAP1 POP SWAP2 SWAP1 POP JUMP JUMPDEST PUSH3 0x4F8 DUP2 PUSH3 0x4E1 JUMP JUMPDEST DUP2 EQ PUSH3 0x504 JUMPI PUSH1 0x0 DUP1 REVERT JUMPDEST POP JUMP JUMPDEST PUSH1 0x0 DUP2 MLOAD SWAP1 POP PUSH3 0x518 DUP2 PUSH3 0x4ED JUMP JUMPDEST SWAP3 SWAP2 POP POP JUMP JUMPDEST PUSH1 0x0 PUSH8 0xFFFFFFFFFFFFFFFF DUP3 GT ISZERO PUSH3 0x53C JUMPI PUSH3 0x53B PUSH3 0x3E4 JUMP JUMPDEST JUMPDEST PUSH1 0x20 DUP3 MUL SWAP1 POP PUSH1 0x20 DUP2 ADD SWAP1 POP SWAP2 SWAP1 POP JUMP JUMPDEST PUSH1 0x0 PUSH3 0x564 PUSH3 0x55E DUP5 PUSH3 0x51E JUMP JUMPDEST PUSH3 0x449 JUMP JUMPDEST SWAP1 POP DUP1 DUP4 DUP3 MSTORE PUSH1 0x20 DUP3 ADD SWAP1 POP PUSH1 0x20 DUP5 MUL DUP4 ADD DUP6 DUP2 GT ISZERO PUSH3 0x58A JUMPI PUSH3 0x589 PUSH3 0x497 JUMP JUMPDEST JUMPDEST DUP4 JUMPDEST DUP2 DUP2 LT ISZERO PUSH3 0x5B7 JUMPI DUP1 PUSH3 0x5A2 DUP9 DUP3 PUSH3 0x3B7 JUMP JUMPDEST DUP5 MSTORE PUSH1 0x20 DUP5 ADD SWAP4 POP POP PUSH1 0x20 DUP2 ADD SWAP1 POP PUSH3 0x58C JUMP JUMPDEST POP POP POP SWAP4 SWAP3 POP POP POP JUMP JUMPDEST PUSH1 0x0 DUP3 PUSH1 0x1F DUP4 ADD SLT PUSH3 0x5D9 JUMPI PUSH3 0x5D8 PUSH3 0x3CE JUMP JUMPDEST JUMPDEST DUP2 MLOAD PUSH3 0x5EB DUP5 DUP3 PUSH1 0x20 DUP7 ADD PUSH3 0x54D JUMP JUMPDEST SWAP2 POP POP SWAP3 SWAP2 POP POP JUMP JUMPDEST PUSH1 0x0 PUSH1 0x80 DUP3 DUP5 SUB SLT ISZERO PUSH3 0x60D JUMPI PUSH3 0x60C PUSH3 0x49C JUMP JUMPDEST JUMPDEST PUSH3 0x619 PUSH1 0x80 PUSH3 0x449 JUMP JUMPDEST SWAP1 POP PUSH1 0x0 PUSH3 0x62B DUP5 DUP3 DUP6 ADD PUSH3 0x4CA JUMP JUMPDEST PUSH1 0x0 DUP4 ADD MSTORE POP PUSH1 0x20 PUSH3 0x641 DUP5 DUP3 DUP6 ADD PUSH3 0x507 JUMP JUMPDEST PUSH1 0x20 DUP4 ADD MSTORE POP PUSH1 0x40 DUP3 ADD MLOAD PUSH8 0xFFFFFFFFFFFFFFFF DUP2 GT ISZERO PUSH3 0x668 JUMPI PUSH3 0x667 PUSH3 0x4A1 JUMP JUMPDEST JUMPDEST PUSH3 0x676 DUP5 DUP3 DUP6 ADD PUSH3 0x5C1 JUMP JUMPDEST PUSH1 0x40 DUP4 ADD MSTORE POP PUSH1 0x60 PUSH3 0x68C DUP5 DUP3 DUP6 ADD PUSH3 0x507 JUMP JUMPDEST PUSH1 0x60 DUP4 ADD MSTORE POP SWAP3 SWAP2 POP POP JUMP JUMPDEST PUSH1 0x0 PUSH3 0x6AF PUSH3 0x6A9 DUP5 PUSH3 0x468 JUMP JUMPDEST PUSH3 0x449 JUMP JUMPDEST SWAP1 POP DUP1 DUP4 DUP3 MSTORE PUSH1 0x20 DUP3 ADD SWAP1 POP PUSH1 0x20 DUP5 MUL DUP4 ADD DUP6 DUP2 GT ISZERO PUSH3 0x6D5 JUMPI PUSH3 0x6D4 PUSH3 0x497 JUMP JUMPDEST JUMPDEST DUP4 JUMPDEST DUP2 DUP2 LT ISZERO PUSH3 0x723 JUMPI DUP1 MLOAD PUSH8 0xFFFFFFFFFFFFFFFF DUP2 GT ISZERO PUSH3 0x6FE JUMPI PUSH3 0x6FD PUSH3 0x3CE JUMP JUMPDEST JUMPDEST DUP1 DUP7 ADD PUSH3 0x70D DUP10 DUP3 PUSH3 0x5F4 JUMP JUMPDEST DUP6 MSTORE PUSH1 0x20 DUP6 ADD SWAP5 POP POP POP PUSH1 0x20 DUP2 ADD SWAP1 POP PUSH3 0x6D7 JUMP JUMPDEST POP POP POP SWAP4 SWAP3 POP POP POP JUMP JUMPDEST PUSH1 0x0 DUP3 PUSH1 0x1F DUP4 ADD SLT PUSH3 0x745 JUMPI PUSH3 0x744 PUSH3 0x3CE JUMP JUMPDEST JUMPDEST DUP2 MLOAD PUSH3 0x757 DUP5 DUP3 PUSH1 0x20 DUP7 ADD PUSH3 0x698 JUMP JUMPDEST SWAP2 POP POP SWAP3 SWAP2 POP POP JUMP JUMPDEST PUSH1 0x0 PUSH8 0xFFFFFFFFFFFFFFFF DUP3 GT ISZERO PUSH3 0x77E JUMPI PUSH3 0x77D PUSH3 0x3E4 JUMP JUMPDEST JUMPDEST PUSH1 0x20 DUP3 MUL SWAP1 POP PUSH1 0x20 DUP2 ADD SWAP1 POP SWAP2 SWAP1 POP JUMP JUMPDEST PUSH1 0x0 PUSH1 0xA0 DUP3 DUP5 SUB SLT ISZERO PUSH3 0x7A8 JUMPI PUSH3 0x7A7 PUSH3 0x49C JUMP JUMPDEST JUMPDEST PUSH3 0x7B4 PUSH1 0xA0 PUSH3 0x449 JUMP JUMPDEST SWAP1 POP PUSH1 0x0 PUSH3 0x7C6 DUP5 DUP3 DUP6 ADD PUSH3 0x3B7 JUMP JUMPDEST PUSH1 0x0 DUP4 ADD MSTORE POP PUSH1 0x20 PUSH3 0x7DC DUP5 DUP3 DUP6 ADD PUSH3 0x4CA JUMP JUMPDEST PUSH1 0x20 DUP4 ADD MSTORE POP PUSH1 0x40 PUSH3 0x7F2 DUP5 DUP3 DUP6 ADD PUSH3 0x3B7 JUMP JUMPDEST PUSH1 0x40 DUP4 ADD MSTORE POP PUSH1 0x60 PUSH3 0x808 DUP5 DUP3 DUP6 ADD PUSH3 0x507 JUMP JUMPDEST PUSH1 0x60 DUP4 ADD MSTORE POP PUSH1 0x80 PUSH3 0x81E DUP5 DUP3 DUP6 ADD PUSH3 0x507 JUMP JUMPDEST PUSH1 0x80 DUP4 ADD MSTORE POP SWAP3 SWAP2 POP POP JUMP JUMPDEST PUSH1 0x0 PUSH3 0x841 PUSH3 0x83B DUP5 PUSH3 0x760 JUMP JUMPDEST PUSH3 0x449 JUMP JUMPDEST SWAP1 POP DUP1 DUP4 DUP3 MSTORE PUSH1 0x20 DUP3 ADD SWAP1 POP PUSH1 0xA0 DUP5 MUL DUP4 ADD DUP6 DUP2 GT ISZERO PUSH3 0x867 JUMPI PUSH3 0x866 PUSH3 0x497 JUMP JUMPDEST JUMPDEST DUP4 JUMPDEST DUP2 DUP2 LT ISZERO PUSH3 0x894 JUMPI DUP1 PUSH3 0x87F DUP9 DUP3 PUSH3 0x78F JUMP JUMPDEST DUP5 MSTORE PUSH1 0x20 DUP5 ADD SWAP4 POP POP PUSH1 0xA0 DUP2 ADD SWAP1 POP PUSH3 0x869 JUMP JUMPDEST POP POP POP SWAP4 SWAP3 POP POP POP JUMP JUMPDEST PUSH1 0x0 DUP3 PUSH1 0x1F DUP4 ADD SLT PUSH3 0x8B6 JUMPI PUSH3 0x8B5 PUSH3 0x3CE JUMP JUMPDEST JUMPDEST DUP2 MLOAD PUSH3 0x8C8 DUP5 DUP3 PUSH1 0x20 DUP7 ADD PUSH3 0x82A JUMP JUMPDEST SWAP2 POP POP SWAP3 SWAP2 POP POP JUMP JUMPDEST PUSH1 0x0 DUP1 PUSH1 0x0 DUP1 PUSH1 0x0 DUP1 PUSH1 0x0 PUSH1 0xE0 DUP9 DUP11 SUB SLT ISZERO PUSH3 0x8F3 JUMPI PUSH3 0x8F2 PUSH3 0x389 JUMP JUMPDEST JUMPDEST PUSH1 0x0 PUSH3 0x903 DUP11 DUP3 DUP12 ADD PUSH3 0x3B7 JUMP JUMPDEST SWAP8 POP POP PUSH1 0x20 PUSH3 0x916 DUP11 DUP3 DUP12 ADD PUSH3 0x3B7 JUMP JUMPDEST SWAP7 POP POP PUSH1 0x40 PUSH3 0x929 DUP11 DUP3 DUP12 ADD PUSH3 0x3B7 JUMP JUMPDEST SWAP6 POP POP PUSH1 0x60 PUSH3 0x93C DUP11 DUP3 DUP12 ADD PUSH3 0x3B7 JUMP JUMPDEST SWAP5 POP POP PUSH1 0x80 DUP9 ADD MLOAD PUSH8 0xFFFFFFFFFFFFFFFF DUP2 GT ISZERO PUSH3 0x960 JUMPI PUSH3 0x95F PUSH3 0x38E JUMP JUMPDEST JUMPDEST PUSH3 0x96E DUP11 DUP3 DUP12 ADD PUSH3 0x72D JUMP JUMPDEST SWAP4 POP POP PUSH1 0xA0 DUP9 ADD MLOAD PUSH8 0xFFFFFFFFFFFFFFFF DUP2 GT ISZERO PUSH3 0x992 JUMPI PUSH3 0x991 PUSH3 0x38E JUMP JUMPDEST JUMPDEST PUSH3 0x9A0 DUP11 DUP3 DUP12 ADD PUSH3 0x89E JUMP JUMPDEST SWAP3 POP POP PUSH1 0xC0 PUSH3 0x9B3 DUP11 DUP3 DUP12 ADD PUSH3 0x507 JUMP JUMPDEST SWAP2 POP POP SWAP3 SWAP6 SWAP9 SWAP2 SWAP5 SWAP8 POP SWAP3 SWAP6 POP JUMP JUMPDEST PUSH32 0x4E487B7100000000000000000000000000000000000000000000000000000000 PUSH1 0x0 MSTORE PUSH1 0x32 PUSH1 0x4 MSTORE PUSH1 0x24 PUSH1 0x0 REVERT JUMPDEST PUSH32 0x4E487B7100000000000000000000000000000000000000000000000000000000 PUSH1 0x0 MSTORE PUSH1 0x11 PUSH1 0x4 MSTORE PUSH1 0x24 PUSH1 0x0 REVERT JUMPDEST PUSH1 0x0 PUSH3 0xA2D DUP3 PUSH3 0x393 JUMP JUMPDEST SWAP2 POP PUSH32 0xFFFFFFFFFFFFFFFFFFFFFFFFFFFFFFFFFFFFFFFFFFFFFFFFFFFFFFFFFFFFFFFF DUP3 EQ ISZERO PUSH3 0xA63 JUMPI PUSH3 0xA62 PUSH3 0x9F1 JUMP JUMPDEST JUMPDEST PUSH1 0x1 DUP3 ADD SWAP1 POP SWAP2 SWAP1 POP JUMP JUMPDEST PUSH1 0x0 PUSH3 0xA7B DUP3 PUSH3 0x393 JUMP JUMPDEST SWAP2 POP PUSH3 0xA88 DUP4 PUSH3 0x393 JUMP JUMPDEST SWAP3 POP DUP3 PUSH32 0xFFFFFFFFFFFFFFFFFFFFFFFFFFFFFFFFFFFFFFFFFFFFFFFFFFFFFFFFFFFFFFFF SUB DUP3 GT ISZERO PUSH3 0xAC0 JUMPI PUSH3 0xABF PUSH3 0x9F1 JUMP JUMPDEST JUMPDEST DUP3 DUP3 ADD SWAP1 POP SWAP3 SWAP2 POP POP JUMP JUMPDEST PUSH2 0x1A86 DUP1 PUSH3 0xADB PUSH1 0x0 CODECOPY PUSH1 0x0 RETURN INVALID PUSH1 0x80 PUSH1 0x40 MSTORE CALLVALUE DUP1 ISZERO PUSH2 0x10 JUMPI PUSH1 0x0 DUP1 REVERT JUMPDEST POP PUSH1 0x4 CALLDATASIZE LT PUSH2 0x7D JUMPI PUSH1 0x0 CALLDATALOAD PUSH1 0xE0 SHR DUP1 PUSH4 0x865DF0AD GT PUSH2 0x5B JUMPI DUP1 PUSH4 0x865DF0AD EQ PUSH2 0x105 JUMPI DUP1 PUSH4 0x8E7EA5B2 EQ PUSH2 0x121 JUMPI DUP1 PUSH4 0x92BCAB34 EQ PUSH2 0x140 JUMPI DUP1 PUSH4 0xDDBF695A EQ PUSH2 0x15F JUMPI PUSH2 0x7D JUMP JUMPDEST DUP1 PUSH4 0x5A9B0B89 EQ PUSH2 0x82 JUMPI DUP1 PUSH4 0x6B959C81 EQ PUSH2 0xA4 JUMPI DUP1 PUSH4 0x70F67CFE EQ PUSH2 0xD5 JUMPI JUMPDEST PUSH1 0x0 DUP1 REVERT JUMPDEST PUSH2 0x8A PUSH2 0x17B JUMP JUMPDEST PUSH1 0x40 MLOAD PUSH2 0x9B SWAP6 SWAP5 SWAP4 SWAP3 SWAP2 SWAP1 PUSH2 0xD34 JUMP JUMPDEST PUSH1 0x40 MLOAD DUP1 SWAP2 SUB SWAP1 RETURN JUMPDEST PUSH2 0xBE PUSH1 0x4 DUP1 CALLDATASIZE SUB DUP2 ADD SWAP1 PUSH2 0xB9 SWAP2 SWAP1 PUSH2 0xDD1 JUMP JUMPDEST PUSH2 0x1BD JUMP JUMPDEST PUSH1 0x40 MLOAD PUSH2 0xCC SWAP3 SWAP2 SWAP1 PUSH2 0x1054 JUMP JUMPDEST PUSH1 0x40 MLOAD DUP1 SWAP2 SUB SWAP1 RETURN JUMPDEST PUSH2 0xEF PUSH1 0x4 DUP1 CALLDATASIZE SUB DUP2 ADD SWAP1 PUSH2 0xEA SWAP2 SWAP1 PUSH2 0x10B7 JUMP JUMPDEST PUSH2 0x40D JUMP JUMPDEST PUSH1 0x40 MLOAD PUSH2 0xFC SWAP2 SWAP1 PUSH2 0x114C JUMP JUMPDEST PUSH1 0x40 MLOAD DUP1 SWAP2 SUB SWAP1 RETURN JUMPDEST PUSH2 0x11F PUSH1 0x4 DUP1 CALLDATASIZE SUB DUP2 ADD SWAP1 PUSH2 0x11A SWAP2 SWAP1 PUSH2 0x10B7 JUMP JUMPDEST PUSH2 0x4E7 JUMP JUMPDEST STOP JUMPDEST PUSH2 0x129 PUSH2 0x668 JUMP JUMPDEST PUSH1 0x40 MLOAD PUSH2 0x137 SWAP3 SWAP2 SWAP1 PUSH2 0x1167 JUMP JUMPDEST PUSH1 0x40 MLOAD DUP1 SWAP2 SUB SWAP1 RETURN JUMPDEST PUSH2 0x148 PUSH2 0x752 JUMP JUMPDEST PUSH1 0x40 MLOAD PUSH2 0x156 SWAP3 SWAP2 SWAP1 PUSH2 0x1426 JUMP JUMPDEST PUSH1 0x40 MLOAD DUP1 SWAP2 SUB SWAP1 RETURN JUMPDEST PUSH2 0x179 PUSH1 0x4 DUP1 CALLDATASIZE SUB DUP2 ADD SWAP1 PUSH2 0x174 SWAP2 SWAP1 PUSH2 0x15B6 JUMP JUMPDEST PUSH2 0xABC JUMP JUMPDEST STOP JUMPDEST PUSH1 0x0 DUP1 PUSH1 0x0 DUP1 PUSH1 0x0 PUSH1 0x2 PUSH1 0x0 SWAP1 SLOAD SWAP1 PUSH2 0x100 EXP SWAP1 DIV PUSH1 0xFF AND PUSH1 0x5 SLOAD PUSH1 0x6 SLOAD PUSH1 0x7 SLOAD PUSH1 0x8 PUSH1 0x0 SWAP1 SLOAD SWAP1 PUSH2 0x100 EXP SWAP1 DIV PUSH1 0xFF AND SWAP5 POP SWAP5 POP SWAP5 POP SWAP5 POP SWAP5 POP SWAP1 SWAP2 SWAP3 SWAP4 SWAP5 JUMP JUMPDEST PUSH2 0x1C5 PUSH2 0xC31 JUMP JUMPDEST PUSH1 0x60 PUSH1 0x0 PUSH1 0x4 PUSH1 0x0 DUP6 DUP2 MSTORE PUSH1 0x20 ADD SWAP1 DUP2 MSTORE PUSH1 0x20 ADD PUSH1 0x0 KECCAK256 PUSH1 0x40 MLOAD DUP1 PUSH1 0x80 ADD PUSH1 0x40 MSTORE SWAP1 DUP2 PUSH1 0x0 DUP3 ADD SLOAD DUP2 MSTORE PUSH1 0x20 ADD PUSH1 0x1 DUP3 ADD PUSH1 0x0 SWAP1 SLOAD SWAP1 PUSH2 0x100 EXP SWAP1 DIV PUSH1 0xFF AND ISZERO ISZERO ISZERO ISZERO DUP2 MSTORE PUSH1 0x20 ADD PUSH1 0x2 DUP3 ADD DUP1 SLOAD DUP1 PUSH1 0x20 MUL PUSH1 0x20 ADD PUSH1 0x40 MLOAD SWAP1 DUP2 ADD PUSH1 0x40 MSTORE DUP1 SWAP3 SWAP2 SWAP1 DUP2 DUP2 MSTORE PUSH1 0x20 ADD DUP3 DUP1 SLOAD DUP1 ISZERO PUSH2 0x25B JUMPI PUSH1 0x20 MUL DUP3 ADD SWAP2 SWAP1 PUSH1 0x0 MSTORE PUSH1 0x20 PUSH1 0x0 KECCAK256 SWAP1 JUMPDEST DUP2 SLOAD DUP2 MSTORE PUSH1 0x20 ADD SWAP1 PUSH1 0x1 ADD SWAP1 DUP1 DUP4 GT PUSH2 0x247 JUMPI JUMPDEST POP POP POP POP POP DUP2 MSTORE PUSH1 0x20 ADD PUSH1 0x3 DUP3 ADD PUSH1 0x0 SWAP1 SLOAD SWAP1 PUSH2 0x100 EXP SWAP1 DIV PUSH1 0xFF AND ISZERO ISZERO ISZERO ISZERO DUP2 MSTORE POP POP SWAP1 POP PUSH1 0x0 PUSH1 0xA SLOAD PUSH8 0xFFFFFFFFFFFFFFFF DUP2 GT ISZERO PUSH2 0x29F JUMPI PUSH2 0x29E PUSH2 0x1473 JUMP JUMPDEST JUMPDEST PUSH1 0x40 MLOAD SWAP1 DUP1 DUP3 MSTORE DUP1 PUSH1 0x20 MUL PUSH1 0x20 ADD DUP3 ADD PUSH1 0x40 MSTORE DUP1 ISZERO PUSH2 0x2D8 JUMPI DUP2 PUSH1 0x20 ADD JUMPDEST PUSH2 0x2C5 PUSH2 0xC60 JUMP JUMPDEST DUP2 MSTORE PUSH1 0x20 ADD SWAP1 PUSH1 0x1 SWAP1 SUB SWAP1 DUP2 PUSH2 0x2BD JUMPI SWAP1 POP JUMPDEST POP SWAP1 POP PUSH1 0x0 JUMPDEST DUP3 PUSH1 0x40 ADD MLOAD MLOAD DUP2 LT ISZERO PUSH2 0x3BB JUMPI PUSH1 0x3 DUP4 PUSH1 0x40 ADD MLOAD DUP3 DUP2 MLOAD DUP2 LT PUSH2 0x304 JUMPI PUSH2 0x303 PUSH2 0x1612 JUMP JUMPDEST JUMPDEST PUSH1 0x20 MUL PUSH1 0x20 ADD ADD MLOAD DUP2 SLOAD DUP2 LT PUSH2 0x31D JUMPI PUSH2 0x31C PUSH2 0x1612 JUMP JUMPDEST JUMPDEST SWAP1 PUSH1 0x0 MSTORE PUSH1 0x20 PUSH1 0x0 KECCAK256 SWAP1 PUSH1 0x4 MUL ADD PUSH1 0x40 MLOAD DUP1 PUSH1 0xA0 ADD PUSH1 0x40 MSTORE SWAP1 DUP2 PUSH1 0x0 DUP3 ADD SLOAD DUP2 MSTORE PUSH1 0x20 ADD PUSH1 0x1 DUP3 ADD SLOAD DUP2 MSTORE PUSH1 0x20 ADD PUSH1 0x2 DUP3 ADD SLOAD DUP2 MSTORE PUSH1 0x20 ADD PUSH1 0x3 DUP3 ADD PUSH1 0x0 SWAP1 SLOAD SWAP1 PUSH2 0x100 EXP SWAP1 DIV PUSH1 0xFF AND ISZERO ISZERO ISZERO ISZERO DUP2 MSTORE PUSH1 0x20 ADD PUSH1 0x3 DUP3 ADD PUSH1 0x1 SWAP1 SLOAD SWAP1 PUSH2 0x100 EXP SWAP1 DIV PUSH1 0xFF AND ISZERO ISZERO ISZERO ISZERO DUP2 MSTORE POP POP DUP3 DUP3 DUP2 MLOAD DUP2 LT PUSH2 0x39D JUMPI PUSH2 0x39C PUSH2 0x1612 JUMP JUMPDEST JUMPDEST PUSH1 0x20 MUL PUSH1 0x20 ADD ADD DUP2 SWAP1 MSTORE POP DUP1 DUP1 PUSH2 0x3B3 SWAP1 PUSH2 0x1670 JUMP JUMPDEST SWAP2 POP POP PUSH2 0x2DE JUMP JUMPDEST POP DUP2 PUSH1 0x60 ADD MLOAD PUSH2 0x400 JUMPI PUSH1 0x40 MLOAD PUSH32 0x8C379A000000000000000000000000000000000000000000000000000000000 DUP2 MSTORE PUSH1 0x4 ADD PUSH2 0x3F7 SWAP1 PUSH2 0x1716 JUMP JUMPDEST PUSH1 0x40 MLOAD DUP1 SWAP2 SUB SWAP1 REVERT JUMPDEST DUP2 DUP2 SWAP4 POP SWAP4 POP POP POP SWAP2 POP SWAP2 JUMP JUMPDEST PUSH2 0x415 PUSH2 0xC60 JUMP JUMPDEST PUSH1 0x0 PUSH1 0x3 DUP4 DUP2 SLOAD DUP2 LT PUSH2 0x42B JUMPI PUSH2 0x42A PUSH2 0x1612 JUMP JUMPDEST JUMPDEST SWAP1 PUSH1 0x0 MSTORE PUSH1 0x20 PUSH1 0x0 KECCAK256 SWAP1 PUSH1 0x4 MUL ADD PUSH1 0x40 MLOAD DUP1 PUSH1 0xA0 ADD PUSH1 0x40 MSTORE SWAP1 DUP2 PUSH1 0x0 DUP3 ADD SLOAD DUP2 MSTORE PUSH1 0x20 ADD PUSH1 0x1 DUP3 ADD SLOAD DUP2 MSTORE PUSH1 0x20 ADD PUSH1 0x2 DUP3 ADD SLOAD DUP2 MSTORE PUSH1 0x20 ADD PUSH1 0x3 DUP3 ADD PUSH1 0x0 SWAP1 SLOAD SWAP1 PUSH2 0x100 EXP SWAP1 DIV PUSH1 0xFF AND ISZERO ISZERO ISZERO ISZERO DUP2 MSTORE PUSH1 0x20 ADD PUSH1 0x3 DUP3 ADD PUSH1 0x1 SWAP1 SLOAD SWAP1 PUSH2 0x100 EXP SWAP1 DIV PUSH1 0xFF AND ISZERO ISZERO ISZERO ISZERO DUP2 MSTORE POP POP SWAP1 POP DUP1 PUSH1 0x80 ADD MLOAD PUSH2 0x4DE JUMPI PUSH1 0x40 MLOAD PUSH32 0x8C379A000000000000000000000000000000000000000000000000000000000 DUP2 MSTORE PUSH1 0x4 ADD PUSH2 0x4D5 SWAP1 PUSH2 0x1782 JUMP JUMPDEST PUSH1 0x40 MLOAD DUP1 SWAP2 SUB SWAP1 REVERT JUMPDEST DUP1 SWAP2 POP POP SWAP2 SWAP1 POP JUMP JUMPDEST PUSH1 0x2 PUSH1 0x0 SWAP1 SLOAD SWAP1 PUSH2 0x100 EXP SWAP1 DIV PUSH1 0xFF AND ISZERO PUSH2 0x537 JUMPI PUSH1 0x40 MLOAD PUSH32 0x8C379A000000000000000000000000000000000000000000000000000000000 DUP2 MSTORE PUSH1 0x4 ADD PUSH2 0x52E SWAP1 PUSH2 0x17EE JUMP JUMPDEST PUSH1 0x40 MLOAD DUP1 SWAP2 SUB SWAP1 REVERT JUMPDEST PUSH1 0x0 SLOAD DUP2 EQ PUSH2 0x57B JUMPI PUSH1 0x40 MLOAD PUSH32 0x8C379A000000000000000000000000000000000000000000000000000000000 DUP2 MSTORE PUSH1 0x4 ADD PUSH2 0x572 SWAP1 PUSH2 0x185A JUMP JUMPDEST PUSH1 0x40 MLOAD DUP1 SWAP2 SUB SWAP1 REVERT JUMPDEST PUSH1 0x1 PUSH1 0x2 PUSH1 0x0 PUSH2 0x100 EXP DUP2 SLOAD DUP2 PUSH1 0xFF MUL NOT AND SWAP1 DUP4 ISZERO ISZERO MUL OR SWAP1 SSTORE POP PUSH1 0x0 DUP1 PUSH1 0x9 DUP2 SWAP1 SSTORE POP PUSH1 0x0 JUMPDEST PUSH1 0x3 DUP1 SLOAD SWAP1 POP DUP2 LT ISZERO PUSH2 0x663 JUMPI PUSH1 0x0 PUSH1 0x3 DUP3 DUP2 SLOAD DUP2 LT PUSH2 0x5C5 JUMPI PUSH2 0x5C4 PUSH2 0x1612 JUMP JUMPDEST JUMPDEST SWAP1 PUSH1 0x0 MSTORE PUSH1 0x20 PUSH1 0x0 KECCAK256 SWAP1 PUSH1 0x4 MUL ADD PUSH1 0x40 MLOAD DUP1 PUSH1 0xA0 ADD PUSH1 0x40 MSTORE SWAP1 DUP2 PUSH1 0x0 DUP3 ADD SLOAD DUP2 MSTORE PUSH1 0x20 ADD PUSH1 0x1 DUP3 ADD SLOAD DUP2 MSTORE PUSH1 0x20 ADD PUSH1 0x2 DUP3 ADD SLOAD DUP2 MSTORE PUSH1 0x20 ADD PUSH1 0x3 DUP3 ADD PUSH1 0x0 SWAP1 SLOAD SWAP1 PUSH2 0x100 EXP SWAP1 DIV PUSH1 0xFF AND ISZERO ISZERO ISZERO ISZERO DUP2 MSTORE PUSH1 0x20 ADD PUSH1 0x3 DUP3 ADD PUSH1 0x1 SWAP1 SLOAD SWAP1 PUSH2 0x100 EXP SWAP1 DIV PUSH1 0xFF AND ISZERO ISZERO ISZERO ISZERO DUP2 MSTORE POP POP SWAP1 POP DUP3 DUP2 PUSH1 0x40 ADD MLOAD GT ISZERO PUSH2 0x64F JUMPI DUP1 PUSH1 0x40 ADD MLOAD SWAP3 POP DUP2 PUSH1 0x9 DUP2 SWAP1 SSTORE POP JUMPDEST POP DUP1 DUP1 PUSH2 0x65B SWAP1 PUSH2 0x1670 JUMP JUMPDEST SWAP2 POP POP PUSH2 0x5A2 JUMP JUMPDEST POP POP POP JUMP JUMPDEST PUSH1 0x0 PUSH2 0x672 PUSH2 0xC60 JUMP JUMPDEST PUSH1 0x2 PUSH1 0x0 SWAP1 SLOAD SWAP1 PUSH2 0x100 EXP SWAP1 DIV PUSH1 0xFF AND PUSH2 0x6C1 JUMPI PUSH1 0x40 MLOAD PUSH32 0x8C379A000000000000000000000000000000000000000000000000000000000 DUP2 MSTORE PUSH1 0x4 ADD PUSH2 0x6B8 SWAP1 PUSH2 0x18C6 JUMP JUMPDEST PUSH1 0x40 MLOAD DUP1 SWAP2 SUB SWAP1 REVERT JUMPDEST PUSH1 0x9 SLOAD PUSH1 0x3 PUSH1 0x9 SLOAD DUP2 SLOAD DUP2 LT PUSH2 0x6DA JUMPI PUSH2 0x6D9 PUSH2 0x1612 JUMP JUMPDEST JUMPDEST SWAP1 PUSH1 0x0 MSTORE PUSH1 0x20 PUSH1 0x0 KECCAK256 SWAP1 PUSH1 0x4 MUL ADD DUP1 PUSH1 0x40 MLOAD DUP1 PUSH1 0xA0 ADD PUSH1 0x40 MSTORE SWAP1 DUP2 PUSH1 0x0 DUP3 ADD SLOAD DUP2 MSTORE PUSH1 0x20 ADD PUSH1 0x1 DUP3 ADD SLOAD DUP2 MSTORE PUSH1 0x20 ADD PUSH1 0x2 DUP3 ADD SLOAD DUP2 MSTORE PUSH1 0x20 ADD PUSH1 0x3 DUP3 ADD PUSH1 0x0 SWAP1 SLOAD SWAP1 PUSH2 0x100 EXP SWAP1 DIV PUSH1 0xFF AND ISZERO ISZERO ISZERO ISZERO DUP2 MSTORE PUSH1 0x20 ADD PUSH1 0x3 DUP3 ADD PUSH1 0x1 SWAP1 SLOAD SWAP1 PUSH2 0x100 EXP SWAP1 DIV PUSH1 0xFF AND ISZERO ISZERO ISZERO ISZERO DUP2 MSTORE POP POP SWAP1 POP SWAP2 POP SWAP2 POP SWAP1 SWAP2 JUMP JUMPDEST PUSH1 0x60 DUP1 PUSH1 0x8 PUSH1 0x0 SWAP1 SLOAD SWAP1 PUSH2 0x100 EXP SWAP1 DIV PUSH1 0xFF AND ISZERO PUSH2 0x7A5 JUMPI PUSH1 0x40 MLOAD PUSH32 0x8C379A000000000000000000000000000000000000000000000000000000000 DUP2 MSTORE PUSH1 0x4 ADD PUSH2 0x79C SWAP1 PUSH2 0x1958 JUMP JUMPDEST PUSH1 0x40 MLOAD DUP1 SWAP2 SUB SWAP1 REVERT JUMPDEST PUSH1 0x0 PUSH1 0xA SLOAD PUSH8 0xFFFFFFFFFFFFFFFF DUP2 GT ISZERO PUSH2 0x7C3 JUMPI PUSH2 0x7C2 PUSH2 0x1473 JUMP JUMPDEST JUMPDEST PUSH1 0x40 MLOAD SWAP1 DUP1 DUP3 MSTORE DUP1 PUSH1 0x20 MUL PUSH1 0x20 ADD DUP3 ADD PUSH1 0x40 MSTORE DUP1 ISZERO PUSH2 0x7FC JUMPI DUP2 PUSH1 0x20 ADD JUMPDEST PUSH2 0x7E9 PUSH2 0xC31 JUMP JUMPDEST DUP2 MSTORE PUSH1 0x20 ADD SWAP1 PUSH1 0x1 SWAP1 SUB SWAP1 DUP2 PUSH2 0x7E1 JUMPI SWAP1 POP JUMPDEST POP SWAP1 POP PUSH1 0x0 PUSH1 0xA SLOAD PUSH8 0xFFFFFFFFFFFFFFFF DUP2 GT ISZERO PUSH2 0x81D JUMPI PUSH2 0x81C PUSH2 0x1473 JUMP JUMPDEST JUMPDEST PUSH1 0x40 MLOAD SWAP1 DUP1 DUP3 MSTORE DUP1 PUSH1 0x20 MUL PUSH1 0x20 ADD DUP3 ADD PUSH1 0x40 MSTORE DUP1 ISZERO PUSH2 0x850 JUMPI DUP2 PUSH1 0x20 ADD JUMPDEST PUSH1 0x60 DUP2 MSTORE PUSH1 0x20 ADD SWAP1 PUSH1 0x1 SWAP1 SUB SWAP1 DUP2 PUSH2 0x83B JUMPI SWAP1 POP JUMPDEST POP SWAP1 POP PUSH1 0x0 JUMPDEST PUSH1 0xB DUP1 SLOAD SWAP1 POP DUP2 LT ISZERO PUSH2 0xAAF JUMPI PUSH1 0x4 PUSH1 0x0 PUSH1 0xB DUP4 DUP2 SLOAD DUP2 LT PUSH2 0x87B JUMPI PUSH2 0x87A PUSH2 0x1612 JUMP JUMPDEST JUMPDEST SWAP1 PUSH1 0x0 MSTORE PUSH1 0x20 PUSH1 0x0 KECCAK256 ADD SLOAD DUP2 MSTORE PUSH1 0x20 ADD SWAP1 DUP2 MSTORE PUSH1 0x20 ADD PUSH1 0x0 KECCAK256 PUSH1 0x40 MLOAD DUP1 PUSH1 0x80 ADD PUSH1 0x40 MSTORE SWAP1 DUP2 PUSH1 0x0 DUP3 ADD SLOAD DUP2 MSTORE PUSH1 0x20 ADD PUSH1 0x1 DUP3 ADD PUSH1 0x0 SWAP1 SLOAD SWAP1 PUSH2 0x100 EXP SWAP1 DIV PUSH1 0xFF AND ISZERO ISZERO ISZERO ISZERO DUP2 MSTORE PUSH1 0x20 ADD PUSH1 0x2 DUP3 ADD DUP1 SLOAD DUP1 PUSH1 0x20 MUL PUSH1 0x20 ADD PUSH1 0x40 MLOAD SWAP1 DUP2 ADD PUSH1 0x40 MSTORE DUP1 SWAP3 SWAP2 SWAP1 DUP2 DUP2 MSTORE PUSH1 0x20 ADD DUP3 DUP1 SLOAD DUP1 ISZERO PUSH2 0x913 JUMPI PUSH1 0x20 MUL DUP3 ADD SWAP2 SWAP1 PUSH1 0x0 MSTORE PUSH1 0x20 PUSH1 0x0 KECCAK256 SWAP1 JUMPDEST DUP2 SLOAD DUP2 MSTORE PUSH1 0x20 ADD SWAP1 PUSH1 0x1 ADD SWAP1 DUP1 DUP4 GT PUSH2 0x8FF JUMPI JUMPDEST POP POP POP POP POP DUP2 MSTORE PUSH1 0x20 ADD PUSH1 0x3 DUP3 ADD PUSH1 0x0 SWAP1 SLOAD SWAP1 PUSH2 0x100 EXP SWAP1 DIV PUSH1 0xFF AND ISZERO ISZERO ISZERO ISZERO DUP2 MSTORE POP POP DUP4 DUP3 DUP2 MLOAD DUP2 LT PUSH2 0x94A JUMPI PUSH2 0x949 PUSH2 0x1612 JUMP JUMPDEST JUMPDEST PUSH1 0x20 MUL PUSH1 0x20 ADD ADD DUP2 SWAP1 MSTORE POP PUSH1 0x0 DUP4 DUP3 DUP2 MLOAD DUP2 LT PUSH2 0x96A JUMPI PUSH2 0x969 PUSH2 0x1612 JUMP JUMPDEST JUMPDEST PUSH1 0x20 MUL PUSH1 0x20 ADD ADD MLOAD PUSH1 0x40 ADD MLOAD MLOAD PUSH8 0xFFFFFFFFFFFFFFFF DUP2 GT ISZERO PUSH2 0x990 JUMPI PUSH2 0x98F PUSH2 0x1473 JUMP JUMPDEST JUMPDEST PUSH1 0x40 MLOAD SWAP1 DUP1 DUP3 MSTORE DUP1 PUSH1 0x20 MUL PUSH1 0x20 ADD DUP3 ADD PUSH1 0x40 MSTORE DUP1 ISZERO PUSH2 0x9BE JUMPI DUP2 PUSH1 0x20 ADD PUSH1 0x20 DUP3 MUL DUP1 CALLDATASIZE DUP4 CALLDATACOPY DUP1 DUP3 ADD SWAP2 POP POP SWAP1 POP JUMPDEST POP SWAP1 POP PUSH1 0x0 JUMPDEST DUP5 DUP4 DUP2 MLOAD DUP2 LT PUSH2 0x9D7 JUMPI PUSH2 0x9D6 PUSH2 0x1612 JUMP JUMPDEST JUMPDEST PUSH1 0x20 MUL PUSH1 0x20 ADD ADD MLOAD PUSH1 0x40 ADD MLOAD MLOAD DUP2 LT ISZERO PUSH2 0xA7B JUMPI PUSH1 0x3 DUP6 DUP5 DUP2 MLOAD DUP2 LT PUSH2 0xA00 JUMPI PUSH2 0x9FF PUSH2 0x1612 JUMP JUMPDEST JUMPDEST PUSH1 0x20 MUL PUSH1 0x20 ADD ADD MLOAD PUSH1 0x40 ADD MLOAD DUP3 DUP2 MLOAD DUP2 LT PUSH2 0xA1E JUMPI PUSH2 0xA1D PUSH2 0x1612 JUMP JUMPDEST JUMPDEST PUSH1 0x20 MUL PUSH1 0x20 ADD ADD MLOAD DUP2 SLOAD DUP2 LT PUSH2 0xA37 JUMPI PUSH2 0xA36 PUSH2 0x1612 JUMP JUMPDEST JUMPDEST SWAP1 PUSH1 0x0 MSTORE PUSH1 0x20 PUSH1 0x0 KECCAK256 SWAP1 PUSH1 0x4 MUL ADD PUSH1 0x1 ADD SLOAD DUP3 DUP3 DUP2 MLOAD DUP2 LT PUSH2 0xA5C JUMPI PUSH2 0xA5B PUSH2 0x1612 JUMP JUMPDEST JUMPDEST PUSH1 0x20 MUL PUSH1 0x20 ADD ADD DUP2 DUP2 MSTORE POP POP DUP1 DUP1 PUSH2 0xA73 SWAP1 PUSH2 0x1670 JUMP JUMPDEST SWAP2 POP POP PUSH2 0x9C4 JUMP JUMPDEST POP DUP1 DUP4 DUP4 DUP2 MLOAD DUP2 LT PUSH2 0xA90 JUMPI PUSH2 0xA8F PUSH2 0x1612 JUMP JUMPDEST JUMPDEST PUSH1 0x20 MUL PUSH1 0x20 ADD ADD DUP2 SWAP1 MSTORE POP POP DUP1 DUP1 PUSH2 0xAA7 SWAP1 PUSH2 0x1670 JUMP JUMPDEST SWAP2 POP POP PUSH2 0x856 JUMP JUMPDEST POP DUP2 DUP2 SWAP4 POP SWAP4 POP POP POP SWAP1 SWAP2 JUMP JUMPDEST PUSH1 0x4 PUSH1 0x0 DUP3 DUP2 MSTORE PUSH1 0x20 ADD SWAP1 DUP2 MSTORE PUSH1 0x20 ADD PUSH1 0x0 KECCAK256 PUSH1 0x3 ADD PUSH1 0x0 SWAP1 SLOAD SWAP1 PUSH2 0x100 EXP SWAP1 DIV PUSH1 0xFF AND PUSH2 0xB1F JUMPI PUSH1 0x40 MLOAD PUSH32 0x8C379A000000000000000000000000000000000000000000000000000000000 DUP2 MSTORE PUSH1 0x4 ADD PUSH2 0xB16 SWAP1 PUSH2 0x19C4 JUMP JUMPDEST PUSH1 0x40 MLOAD DUP1 SWAP2 SUB SWAP1 REVERT JUMPDEST PUSH1 0x4 PUSH1 0x0 DUP3 DUP2 MSTORE PUSH1 0x20 ADD SWAP1 DUP2 MSTORE PUSH1 0x20 ADD PUSH1 0x0 KECCAK256 PUSH1 0x1 ADD PUSH1 0x0 SWAP1 SLOAD SWAP1 PUSH2 0x100 EXP SWAP1 DIV PUSH1 0xFF AND ISZERO PUSH2 0xB83 JUMPI PUSH1 0x40 MLOAD PUSH32 0x8C379A000000000000000000000000000000000000000000000000000000000 DUP2 MSTORE PUSH1 0x4 ADD PUSH2 0xB7A SWAP1 PUSH2 0x1A30 JUMP JUMPDEST PUSH1 0x40 MLOAD DUP1 SWAP2 SUB SWAP1 REVERT JUMPDEST PUSH1 0x2 PUSH1 0x0 SWAP1 SLOAD SWAP1 PUSH2 0x100 EXP SWAP1 DIV PUSH1 0xFF AND ISZERO PUSH2 0xBD3 JUMPI PUSH1 0x40 MLOAD PUSH32 0x8C379A000000000000000000000000000000000000000000000000000000000 DUP2 MSTORE PUSH1 0x4 ADD PUSH2 0xBCA SWAP1 PUSH2 0x17EE JUMP JUMPDEST PUSH1 0x40 MLOAD DUP1 SWAP2 SUB SWAP1 REVERT JUMPDEST DUP2 PUSH1 0x4 PUSH1 0x0 DUP4 DUP2 MSTORE PUSH1 0x20 ADD SWAP1 DUP2 MSTORE PUSH1 0x20 ADD PUSH1 0x0 KECCAK256 PUSH1 0x2 ADD SWAP1 DUP1 MLOAD SWAP1 PUSH1 0x20 ADD SWAP1 PUSH2 0xBFD SWAP3 SWAP2 SWAP1 PUSH2 0xC96 JUMP JUMPDEST POP PUSH1 0x1 PUSH1 0x4 PUSH1 0x0 DUP4 DUP2 MSTORE PUSH1 0x20 ADD SWAP1 DUP2 MSTORE PUSH1 0x20 ADD PUSH1 0x0 KECCAK256 PUSH1 0x1 ADD PUSH1 0x0 PUSH2 0x100 EXP DUP2 SLOAD DUP2 PUSH1 0xFF MUL NOT AND SWAP1 DUP4 ISZERO ISZERO MUL OR SWAP1 SSTORE POP POP POP JUMP JUMPDEST PUSH1 0x40 MLOAD DUP1 PUSH1 0x80 ADD PUSH1 0x40 MSTORE DUP1 PUSH1 0x0 DUP1 NOT AND DUP2 MSTORE PUSH1 0x20 ADD PUSH1 0x0 ISZERO ISZERO DUP2 MSTORE PUSH1 0x20 ADD PUSH1 0x60 DUP2 MSTORE PUSH1 0x20 ADD PUSH1 0x0 ISZERO ISZERO DUP2 MSTORE POP SWAP1 JUMP JUMPDEST PUSH1 0x40 MLOAD DUP1 PUSH1 0xA0 ADD PUSH1 0x40 MSTORE DUP1 PUSH1 0x0 DUP2 MSTORE PUSH1 0x20 ADD PUSH1 0x0 DUP1 NOT AND DUP2 MSTORE PUSH1 0x20 ADD PUSH1 0x0 DUP2 MSTORE PUSH1 0x20 ADD PUSH1 0x0 ISZERO ISZERO DUP2 MSTORE PUSH1 0x20 ADD PUSH1 0x0 ISZERO ISZERO DUP2 MSTORE POP SWAP1 JUMP JUMPDEST DUP3 DUP1 SLOAD DUP3 DUP3 SSTORE SWAP1 PUSH1 0x0 MSTORE PUSH1 0x20 PUSH1 0x0 KECCAK256 SWAP1 DUP2 ADD SWAP3 DUP3 ISZERO PUSH2 0xCD2 JUMPI SWAP2 PUSH1 0x20 MUL DUP3 ADD JUMPDEST DUP3 DUP2 GT ISZERO PUSH2 0xCD1 JUMPI DUP3 MLOAD DUP3 SSTORE SWAP2 PUSH1 0x20 ADD SWAP2 SWAP1 PUSH1 0x1 ADD SWAP1 PUSH2 0xCB6 JUMP JUMPDEST JUMPDEST POP SWAP1 POP PUSH2 0xCDF SWAP2 SWAP1 PUSH2 0xCE3 JUMP JUMPDEST POP SWAP1 JUMP JUMPDEST JUMPDEST DUP1 DUP3 GT ISZERO PUSH2 0xCFC JUMPI PUSH1 0x0 DUP2 PUSH1 0x0 SWAP1 SSTORE POP PUSH1 0x1 ADD PUSH2 0xCE4 JUMP JUMPDEST POP SWAP1 JUMP JUMPDEST PUSH1 0x0 DUP2 ISZERO ISZERO SWAP1 POP SWAP2 SWAP1 POP JUMP JUMPDEST PUSH2 0xD15 DUP2 PUSH2 0xD00 JUMP JUMPDEST DUP3 MSTORE POP POP JUMP JUMPDEST PUSH1 0x0 DUP2 SWAP1 POP SWAP2 SWAP1 POP JUMP JUMPDEST PUSH2 0xD2E DUP2 PUSH2 0xD1B JUMP JUMPDEST DUP3 MSTORE POP POP JUMP JUMPDEST PUSH1 0x0 PUSH1 0xA0 DUP3 ADD SWAP1 POP PUSH2 0xD49 PUSH1 0x0 DUP4 ADD DUP9 PUSH2 0xD0C JUMP JUMPDEST PUSH2 0xD56 PUSH1 0x20 DUP4 ADD DUP8 PUSH2 0xD25 JUMP JUMPDEST PUSH2 0xD63 PUSH1 0x40 DUP4 ADD DUP7 PUSH2 0xD25 JUMP JUMPDEST PUSH2 0xD70 PUSH1 0x60 DUP4 ADD DUP6 PUSH2 0xD25 JUMP JUMPDEST PUSH2 0xD7D PUSH1 0x80 DUP4 ADD DUP5 PUSH2 0xD0C JUMP JUMPDEST SWAP7 SWAP6 POP POP POP POP POP POP JUMP JUMPDEST PUSH1 0x0 PUSH1 0x40 MLOAD SWAP1 POP SWAP1 JUMP JUMPDEST PUSH1 0x0 DUP1 REVERT JUMPDEST PUSH1 0x0 DUP1 REVERT JUMPDEST PUSH1 0x0 DUP2 SWAP1 POP SWAP2 SWAP1 POP JUMP JUMPDEST PUSH2 0xDAE DUP2 PUSH2 0xD9B JUMP JUMPDEST DUP2 EQ PUSH2 0xDB9 JUMPI PUSH1 0x0 DUP1 REVERT JUMPDEST POP JUMP JUMPDEST PUSH1 0x0 DUP2 CALLDATALOAD SWAP1 POP PUSH2 0xDCB DUP2 PUSH2 0xDA5 JUMP JUMPDEST SWAP3 SWAP2 POP POP JUMP JUMPDEST PUSH1 0x0 PUSH1 0x20 DUP3 DUP5 SUB SLT ISZERO PUSH2 0xDE7 JUMPI PUSH2 0xDE6 PUSH2 0xD91 JUMP JUMPDEST JUMPDEST PUSH1 0x0 PUSH2 0xDF5 DUP5 DUP3 DUP6 ADD PUSH2 0xDBC JUMP JUMPDEST SWAP2 POP POP SWAP3 SWAP2 POP POP JUMP JUMPDEST PUSH2 0xE07 DUP2 PUSH2 0xD9B JUMP JUMPDEST DUP3 MSTORE POP POP JUMP JUMPDEST PUSH2 0xE16 DUP2 PUSH2 0xD00 JUMP JUMPDEST DUP3 MSTORE POP POP JUMP JUMPDEST PUSH1 0x0 DUP2 MLOAD SWAP1 POP SWAP2 SWAP1 POP JUMP JUMPDEST PUSH1 0x0 DUP3 DUP3 MSTORE PUSH1 0x20 DUP3 ADD SWAP1 POP SWAP3 SWAP2 POP POP JUMP JUMPDEST PUSH1 0x0 DUP2 SWAP1 POP PUSH1 0x20 DUP3 ADD SWAP1 POP SWAP2 SWAP1 POP JUMP JUMPDEST PUSH2 0xE51 DUP2 PUSH2 0xD1B JUMP JUMPDEST DUP3 MSTORE POP POP JUMP JUMPDEST PUSH1 0x0 PUSH2 0xE63 DUP4 DUP4 PUSH2 0xE48 JUMP JUMPDEST PUSH1 0x20 DUP4 ADD SWAP1 POP SWAP3 SWAP2 POP POP JUMP JUMPDEST PUSH1 0x0 PUSH1 0x20 DUP3 ADD SWAP1 POP SWAP2 SWAP1 POP JUMP JUMPDEST PUSH1 0x0 PUSH2 0xE87 DUP3 PUSH2 0xE1C JUMP JUMPDEST PUSH2 0xE91 DUP2 DUP6 PUSH2 0xE27 JUMP JUMPDEST SWAP4 POP PUSH2 0xE9C DUP4 PUSH2 0xE38 JUMP JUMPDEST DUP1 PUSH1 0x0 JUMPDEST DUP4 DUP2 LT ISZERO PUSH2 0xECD JUMPI DUP2 MLOAD PUSH2 0xEB4 DUP9 DUP3 PUSH2 0xE57 JUMP JUMPDEST SWAP8 POP PUSH2 0xEBF DUP4 PUSH2 0xE6F JUMP JUMPDEST SWAP3 POP POP PUSH1 0x1 DUP2 ADD SWAP1 POP PUSH2 0xEA0 JUMP JUMPDEST POP DUP6 SWAP4 POP POP POP POP SWAP3 SWAP2 POP POP JUMP JUMPDEST PUSH1 0x0 PUSH1 0x80 DUP4 ADD PUSH1 0x0 DUP4 ADD MLOAD PUSH2 0xEF2 PUSH1 0x0 DUP7 ADD DUP3 PUSH2 0xDFE JUMP JUMPDEST POP PUSH1 0x20 DUP4 ADD MLOAD PUSH2 0xF05 PUSH1 0x20 DUP7 ADD DUP3 PUSH2 0xE0D JUMP JUMPDEST POP PUSH1 0x40 DUP4 ADD MLOAD DUP5 DUP3 SUB PUSH1 0x40 DUP7 ADD MSTORE PUSH2 0xF1D DUP3 DUP3 PUSH2 0xE7C JUMP JUMPDEST SWAP2 POP POP PUSH1 0x60 DUP4 ADD MLOAD PUSH2 0xF32 PUSH1 0x60 DUP7 ADD DUP3 PUSH2 0xE0D JUMP JUMPDEST POP DUP1 SWAP2 POP POP SWAP3 SWAP2 POP POP JUMP JUMPDEST PUSH1 0x0 DUP2 MLOAD SWAP1 POP SWAP2 SWAP1 POP JUMP JUMPDEST PUSH1 0x0 DUP3 DUP3 MSTORE PUSH1 0x20 DUP3 ADD SWAP1 POP SWAP3 SWAP2 POP POP JUMP JUMPDEST PUSH1 0x0 DUP2 SWAP1 POP PUSH1 0x20 DUP3 ADD SWAP1 POP SWAP2 SWAP1 POP JUMP JUMPDEST PUSH1 0xA0 DUP3 ADD PUSH1 0x0 DUP3 ADD MLOAD PUSH2 0xF7F PUSH1 0x0 DUP6 ADD DUP3 PUSH2 0xE48 JUMP JUMPDEST POP PUSH1 0x20 DUP3 ADD MLOAD PUSH2 0xF92 PUSH1 0x20 DUP6 ADD DUP3 PUSH2 0xDFE JUMP JUMPDEST POP PUSH1 0x40 DUP3 ADD MLOAD PUSH2 0xFA5 PUSH1 0x40 DUP6 ADD DUP3 PUSH2 0xE48 JUMP JUMPDEST POP PUSH1 0x60 DUP3 ADD MLOAD PUSH2 0xFB8 PUSH1 0x60 DUP6 ADD DUP3 PUSH2 0xE0D JUMP JUMPDEST POP PUSH1 0x80 DUP3 ADD MLOAD PUSH2 0xFCB PUSH1 0x80 DUP6 ADD DUP3 PUSH2 0xE0D JUMP JUMPDEST POP POP POP POP JUMP JUMPDEST PUSH1 0x0 PUSH2 0xFDD DUP4 DUP4 PUSH2 0xF69 JUMP JUMPDEST PUSH1 0xA0 DUP4 ADD SWAP1 POP SWAP3 SWAP2 POP POP JUMP JUMPDEST PUSH1 0x0 PUSH1 0x20 DUP3 ADD SWAP1 POP SWAP2 SWAP1 POP JUMP JUMPDEST PUSH1 0x0 PUSH2 0x1001 DUP3 PUSH2 0xF3D JUMP JUMPDEST PUSH2 0x100B DUP2 DUP6 PUSH2 0xF48 JUMP JUMPDEST SWAP4 POP PUSH2 0x1016 DUP4 PUSH2 0xF59 JUMP JUMPDEST DUP1 PUSH1 0x0 JUMPDEST DUP4 DUP2 LT ISZERO PUSH2 0x1047 JUMPI DUP2 MLOAD PUSH2 0x102E DUP9 DUP3 PUSH2 0xFD1 JUMP JUMPDEST SWAP8 POP PUSH2 0x1039 DUP4 PUSH2 0xFE9 JUMP JUMPDEST SWAP3 POP POP PUSH1 0x1 DUP2 ADD SWAP1 POP PUSH2 0x101A JUMP JUMPDEST POP DUP6 SWAP4 POP POP POP POP SWAP3 SWAP2 POP POP JUMP JUMPDEST PUSH1 0x0 PUSH1 0x40 DUP3 ADD SWAP1 POP DUP2 DUP2 SUB PUSH1 0x0 DUP4 ADD MSTORE PUSH2 0x106E DUP2 DUP6 PUSH2 0xEDA JUMP JUMPDEST SWAP1 POP DUP2 DUP2 SUB PUSH1 0x20 DUP4 ADD MSTORE PUSH2 0x1082 DUP2 DUP5 PUSH2 0xFF6 JUMP JUMPDEST SWAP1 POP SWAP4 SWAP3 POP POP POP JUMP JUMPDEST PUSH2 0x1094 DUP2 PUSH2 0xD1B JUMP JUMPDEST DUP2 EQ PUSH2 0x109F JUMPI PUSH1 0x0 DUP1 REVERT JUMPDEST POP JUMP JUMPDEST PUSH1 0x0 DUP2 CALLDATALOAD SWAP1 POP PUSH2 0x10B1 DUP2 PUSH2 0x108B JUMP JUMPDEST SWAP3 SWAP2 POP POP JUMP JUMPDEST PUSH1 0x0 PUSH1 0x20 DUP3 DUP5 SUB SLT ISZERO PUSH2 0x10CD JUMPI PUSH2 0x10CC PUSH2 0xD91 JUMP JUMPDEST JUMPDEST PUSH1 0x0 PUSH2 0x10DB DUP5 DUP3 DUP6 ADD PUSH2 0x10A2 JUMP JUMPDEST SWAP2 POP POP SWAP3 SWAP2 POP POP JUMP JUMPDEST PUSH1 0xA0 DUP3 ADD PUSH1 0x0 DUP3 ADD MLOAD PUSH2 0x10FA PUSH1 0x0 DUP6 ADD DUP3 PUSH2 0xE48 JUMP JUMPDEST POP PUSH1 0x20 DUP3 ADD MLOAD PUSH2 0x110D PUSH1 0x20 DUP6 ADD DUP3 PUSH2 0xDFE JUMP JUMPDEST POP PUSH1 0x40 DUP3 ADD MLOAD PUSH2 0x1120 PUSH1 0x40 DUP6 ADD DUP3 PUSH2 0xE48 JUMP JUMPDEST POP PUSH1 0x60 DUP3 ADD MLOAD PUSH2 0x1133 PUSH1 0x60 DUP6 ADD DUP3 PUSH2 0xE0D JUMP JUMPDEST POP PUSH1 0x80 DUP3 ADD MLOAD PUSH2 0x1146 PUSH1 0x80 DUP6 ADD DUP3 PUSH2 0xE0D JUMP JUMPDEST POP POP POP POP JUMP JUMPDEST PUSH1 0x0 PUSH1 0xA0 DUP3 ADD SWAP1 POP PUSH2 0x1161 PUSH1 0x0 DUP4 ADD DUP5 PUSH2 0x10E4 JUMP JUMPDEST SWAP3 SWAP2 POP POP JUMP JUMPDEST PUSH1 0x0 PUSH1 0xC0 DUP3 ADD SWAP1 POP PUSH2 0x117C PUSH1 0x0 DUP4 ADD DUP6 PUSH2 0xD25 JUMP JUMPDEST PUSH2 0x1189 PUSH1 0x20 DUP4 ADD DUP5 PUSH2 0x10E4 JUMP JUMPDEST SWAP4 SWAP3 POP POP POP JUMP JUMPDEST PUSH1 0x0 DUP2 MLOAD SWAP1 POP SWAP2 SWAP1 POP JUMP JUMPDEST PUSH1 0x0 DUP3 DUP3 MSTORE PUSH1 0x20 DUP3 ADD SWAP1 POP SWAP3 SWAP2 POP POP JUMP JUMPDEST PUSH1 0x0 DUP2 SWAP1 POP PUSH1 0x20 DUP3 ADD SWAP1 POP SWAP2 SWAP1 POP JUMP JUMPDEST PUSH1 0x0 PUSH1 0x80 DUP4 ADD PUSH1 0x0 DUP4 ADD MLOAD PUSH2 0x11D4 PUSH1 0x0 DUP7 ADD DUP3 PUSH2 0xDFE JUMP JUMPDEST POP PUSH1 0x20 DUP4 ADD MLOAD PUSH2 0x11E7 PUSH1 0x20 DUP7 ADD DUP3 PUSH2 0xE0D JUMP JUMPDEST POP PUSH1 0x40 DUP4 ADD MLOAD DUP5 DUP3 SUB PUSH1 0x40 DUP7 ADD MSTORE PUSH2 0x11FF DUP3 DUP3 PUSH2 0xE7C JUMP JUMPDEST SWAP2 POP POP PUSH1 0x60 DUP4 ADD MLOAD PUSH2 0x1214 PUSH1 0x60 DUP7 ADD DUP3 PUSH2 0xE0D JUMP JUMPDEST POP DUP1 SWAP2 POP POP SWAP3 SWAP2 POP POP JUMP JUMPDEST PUSH1 0x0 PUSH2 0x122B DUP4 DUP4 PUSH2 0x11BC JUMP JUMPDEST SWAP1 POP SWAP3 SWAP2 POP POP JUMP JUMPDEST PUSH1 0x0 PUSH1 0x20 DUP3 ADD SWAP1 POP SWAP2 SWAP1 POP JUMP JUMPDEST PUSH1 0x0 PUSH2 0x124B DUP3 PUSH2 0x1190 JUMP JUMPDEST PUSH2 0x1255 DUP2 DUP6 PUSH2 0x119B JUMP JUMPDEST SWAP4 POP DUP4 PUSH1 0x20 DUP3 MUL DUP6 ADD PUSH2 0x1267 DUP6 PUSH2 0x11AC JUMP JUMPDEST DUP1 PUSH1 0x0 JUMPDEST DUP6 DUP2 LT ISZERO PUSH2 0x12A3 JUMPI DUP5 DUP5 SUB DUP10 MSTORE DUP2 MLOAD PUSH2 0x1284 DUP6 DUP3 PUSH2 0x121F JUMP JUMPDEST SWAP5 POP PUSH2 0x128F DUP4 PUSH2 0x1233 JUMP JUMPDEST SWAP3 POP PUSH1 0x20 DUP11 ADD SWAP10 POP POP PUSH1 0x1 DUP2 ADD SWAP1 POP PUSH2 0x126B JUMP JUMPDEST POP DUP3 SWAP8 POP DUP8 SWAP6 POP POP POP POP POP POP SWAP3 SWAP2 POP POP JUMP JUMPDEST PUSH1 0x0 DUP2 MLOAD SWAP1 POP SWAP2 SWAP1 POP JUMP JUMPDEST PUSH1 0x0 DUP3 DUP3 MSTORE PUSH1 0x20 DUP3 ADD SWAP1 POP SWAP3 SWAP2 POP POP JUMP JUMPDEST PUSH1 0x0 DUP2 SWAP1 POP PUSH1 0x20 DUP3 ADD SWAP1 POP SWAP2 SWAP1 POP JUMP JUMPDEST PUSH1 0x0 DUP2 MLOAD SWAP1 POP SWAP2 SWAP1 POP JUMP JUMPDEST PUSH1 0x0 DUP3 DUP3 MSTORE PUSH1 0x20 DUP3 ADD SWAP1 POP SWAP3 SWAP2 POP POP JUMP JUMPDEST PUSH1 0x0 DUP2 SWAP1 POP PUSH1 0x20 DUP3 ADD SWAP1 POP SWAP2 SWAP1 POP JUMP JUMPDEST PUSH1 0x0 PUSH2 0x1319 DUP4 DUP4 PUSH2 0xDFE JUMP JUMPDEST PUSH1 0x20 DUP4 ADD SWAP1 POP SWAP3 SWAP2 POP POP JUMP JUMPDEST PUSH1 0x0 PUSH1 0x20 DUP3 ADD SWAP1 POP SWAP2 SWAP1 POP JUMP JUMPDEST PUSH1 0x0 PUSH2 0x133D DUP3 PUSH2 0x12E1 JUMP JUMPDEST PUSH2 0x1347 DUP2 DUP6 PUSH2 0x12EC JUMP JUMPDEST SWAP4 POP PUSH2 0x1352 DUP4 PUSH2 0x12FD JUMP JUMPDEST DUP1 PUSH1 0x0 JUMPDEST DUP4 DUP2 LT ISZERO PUSH2 0x1383 JUMPI DUP2 MLOAD PUSH2 0x136A DUP9 DUP3 PUSH2 0x130D JUMP JUMPDEST SWAP8 POP PUSH2 0x1375 DUP4 PUSH2 0x1325 JUMP JUMPDEST SWAP3 POP POP PUSH1 0x1 DUP2 ADD SWAP1 POP PUSH2 0x1356 JUMP JUMPDEST POP DUP6 SWAP4 POP POP POP POP SWAP3 SWAP2 POP POP JUMP JUMPDEST PUSH1 0x0 PUSH2 0x139C DUP4 DUP4 PUSH2 0x1332 JUMP JUMPDEST SWAP1 POP SWAP3 SWAP2 POP POP JUMP JUMPDEST PUSH1 0x0 PUSH1 0x20 DUP3 ADD SWAP1 POP SWAP2 SWAP1 POP JUMP JUMPDEST PUSH1 0x0 PUSH2 0x13BC DUP3 PUSH2 0x12B5 JUMP JUMPDEST PUSH2 0x13C6 DUP2 DUP6 PUSH2 0x12C0 JUMP JUMPDEST SWAP4 POP DUP4 PUSH1 0x20 DUP3 MUL DUP6 ADD PUSH2 0x13D8 DUP6 PUSH2 0x12D1 JUMP JUMPDEST DUP1 PUSH1 0x0 JUMPDEST DUP6 DUP2 LT ISZERO PUSH2 0x1414 JUMPI DUP5 DUP5 SUB DUP10 MSTORE DUP2 MLOAD PUSH2 0x13F5 DUP6 DUP3 PUSH2 0x1390 JUMP JUMPDEST SWAP5 POP PUSH2 0x1400 DUP4 PUSH2 0x13A4 JUMP JUMPDEST SWAP3 POP PUSH1 0x20 DUP11 ADD SWAP10 POP POP PUSH1 0x1 DUP2 ADD SWAP1 POP PUSH2 0x13DC JUMP JUMPDEST POP DUP3 SWAP8 POP DUP8 SWAP6 POP POP POP POP POP POP SWAP3 SWAP2 POP POP JUMP JUMPDEST PUSH1 0x0 PUSH1 0x40 DUP3 ADD SWAP1 POP DUP2 DUP2 SUB PUSH1 0x0 DUP4 ADD MSTORE PUSH2 0x1440 DUP2 DUP6 PUSH2 0x1240 JUMP JUMPDEST SWAP1 POP DUP2 DUP2 SUB PUSH1 0x20 DUP4 ADD MSTORE PUSH2 0x1454 DUP2 DUP5 PUSH2 0x13B1 JUMP JUMPDEST SWAP1 POP SWAP4 SWAP3 POP POP POP JUMP JUMPDEST PUSH1 0x0 DUP1 REVERT JUMPDEST PUSH1 0x0 PUSH1 0x1F NOT PUSH1 0x1F DUP4 ADD AND SWAP1 POP SWAP2 SWAP1 POP JUMP JUMPDEST PUSH32 0x4E487B7100000000000000000000000000000000000000000000000000000000 PUSH1 0x0 MSTORE PUSH1 0x41 PUSH1 0x4 MSTORE PUSH1 0x24 PUSH1 0x0 REVERT JUMPDEST PUSH2 0x14AB DUP3 PUSH2 0x1462 JUMP JUMPDEST DUP2 ADD DUP2 DUP2 LT PUSH8 0xFFFFFFFFFFFFFFFF DUP3 GT OR ISZERO PUSH2 0x14CA JUMPI PUSH2 0x14C9 PUSH2 0x1473 JUMP JUMPDEST JUMPDEST DUP1 PUSH1 0x40 MSTORE POP POP POP JUMP JUMPDEST PUSH1 0x0 PUSH2 0x14DD PUSH2 0xD87 JUMP JUMPDEST SWAP1 POP PUSH2 0x14E9 DUP3 DUP3 PUSH2 0x14A2 JUMP JUMPDEST SWAP2 SWAP1 POP JUMP JUMPDEST PUSH1 0x0 PUSH8 0xFFFFFFFFFFFFFFFF DUP3 GT ISZERO PUSH2 0x1509 JUMPI PUSH2 0x1508 PUSH2 0x1473 JUMP JUMPDEST JUMPDEST PUSH1 0x20 DUP3 MUL SWAP1 POP PUSH1 0x20 DUP2 ADD SWAP1 POP SWAP2 SWAP1 POP JUMP JUMPDEST PUSH1 0x0 DUP1 REVERT JUMPDEST PUSH1 0x0 PUSH2 0x1532 PUSH2 0x152D DUP5 PUSH2 0x14EE JUMP JUMPDEST PUSH2 0x14D3 JUMP JUMPDEST SWAP1 POP DUP1 DUP4 DUP3 MSTORE PUSH1 0x20 DUP3 ADD SWAP1 POP PUSH1 0x20 DUP5 MUL DUP4 ADD DUP6 DUP2 GT ISZERO PUSH2 0x1555 JUMPI PUSH2 0x1554 PUSH2 0x151A JUMP JUMPDEST JUMPDEST DUP4 JUMPDEST DUP2 DUP2 LT ISZERO PUSH2 0x157E JUMPI DUP1 PUSH2 0x156A DUP9 DUP3 PUSH2 0x10A2 JUMP JUMPDEST DUP5 MSTORE PUSH1 0x20 DUP5 ADD SWAP4 POP POP PUSH1 0x20 DUP2 ADD SWAP1 POP PUSH2 0x1557 JUMP JUMPDEST POP POP POP SWAP4 SWAP3 POP POP POP JUMP JUMPDEST PUSH1 0x0 DUP3 PUSH1 0x1F DUP4 ADD SLT PUSH2 0x159D JUMPI PUSH2 0x159C PUSH2 0x145D JUMP JUMPDEST JUMPDEST DUP2 CALLDATALOAD PUSH2 0x15AD DUP5 DUP3 PUSH1 0x20 DUP7 ADD PUSH2 0x151F JUMP JUMPDEST SWAP2 POP POP SWAP3 SWAP2 POP POP JUMP JUMPDEST PUSH1 0x0 DUP1 PUSH1 0x40 DUP4 DUP6 SUB SLT ISZERO PUSH2 0x15CD JUMPI PUSH2 0x15CC PUSH2 0xD91 JUMP JUMPDEST JUMPDEST PUSH1 0x0 DUP4 ADD CALLDATALOAD PUSH8 0xFFFFFFFFFFFFFFFF DUP2 GT ISZERO PUSH2 0x15EB JUMPI PUSH2 0x15EA PUSH2 0xD96 JUMP JUMPDEST JUMPDEST PUSH2 0x15F7 DUP6 DUP3 DUP7 ADD PUSH2 0x1588 JUMP JUMPDEST SWAP3 POP POP PUSH1 0x20 PUSH2 0x1608 DUP6 DUP3 DUP7 ADD PUSH2 0xDBC JUMP JUMPDEST SWAP2 POP POP SWAP3 POP SWAP3 SWAP1 POP JUMP JUMPDEST PUSH32 0x4E487B7100000000000000000000000000000000000000000000000000000000 PUSH1 0x0 MSTORE PUSH1 0x32 PUSH1 0x4 MSTORE PUSH1 0x24 PUSH1 0x0 REVERT JUMPDEST PUSH32 0x4E487B7100000000000000000000000000000000000000000000000000000000 PUSH1 0x0 MSTORE PUSH1 0x11 PUSH1 0x4 MSTORE PUSH1 0x24 PUSH1 0x0 REVERT JUMPDEST PUSH1 0x0 PUSH2 0x167B DUP3 PUSH2 0xD1B JUMP JUMPDEST SWAP2 POP PUSH32 0xFFFFFFFFFFFFFFFFFFFFFFFFFFFFFFFFFFFFFFFFFFFFFFFFFFFFFFFFFFFFFFFF DUP3 EQ ISZERO PUSH2 0x16AE JUMPI PUSH2 0x16AD PUSH2 0x1641 JUMP JUMPDEST JUMPDEST PUSH1 0x1 DUP3 ADD SWAP1 POP SWAP2 SWAP1 POP JUMP JUMPDEST PUSH1 0x0 DUP3 DUP3 MSTORE PUSH1 0x20 DUP3 ADD SWAP1 POP SWAP3 SWAP2 POP POP JUMP JUMPDEST PUSH32 0x566F74657220646F6573206E6F74206578697374000000000000000000000000 PUSH1 0x0 DUP3 ADD MSTORE POP JUMP JUMPDEST PUSH1 0x0 PUSH2 0x1700 PUSH1 0x14 DUP4 PUSH2 0x16B9 JUMP JUMPDEST SWAP2 POP PUSH2 0x170B DUP3 PUSH2 0x16CA JUMP JUMPDEST PUSH1 0x20 DUP3 ADD SWAP1 POP SWAP2 SWAP1 POP JUMP JUMPDEST PUSH1 0x0 PUSH1 0x20 DUP3 ADD SWAP1 POP DUP2 DUP2 SUB PUSH1 0x0 DUP4 ADD MSTORE PUSH2 0x172F DUP2 PUSH2 0x16F3 JUMP JUMPDEST SWAP1 POP SWAP2 SWAP1 POP JUMP JUMPDEST PUSH32 0x43616E64696461746520646F6573206E6F742065786973740000000000000000 PUSH1 0x0 DUP3 ADD MSTORE POP JUMP JUMPDEST PUSH1 0x0 PUSH2 0x176C PUSH1 0x18 DUP4 PUSH2 0x16B9 JUMP JUMPDEST SWAP2 POP PUSH2 0x1777 DUP3 PUSH2 0x1736 JUMP JUMPDEST PUSH1 0x20 DUP3 ADD SWAP1 POP SWAP2 SWAP1 POP JUMP JUMPDEST PUSH1 0x0 PUSH1 0x20 DUP3 ADD SWAP1 POP DUP2 DUP2 SUB PUSH1 0x0 DUP4 ADD MSTORE PUSH2 0x179B DUP2 PUSH2 0x175F JUMP JUMPDEST SWAP1 POP SWAP2 SWAP1 POP JUMP JUMPDEST PUSH32 0x566F74696E672068617320616C72656164792066696E69736865642100000000 PUSH1 0x0 DUP3 ADD MSTORE POP JUMP JUMPDEST PUSH1 0x0 PUSH2 0x17D8 PUSH1 0x1C DUP4 PUSH2 0x16B9 JUMP JUMPDEST SWAP2 POP PUSH2 0x17E3 DUP3 PUSH2 0x17A2 JUMP JUMPDEST PUSH1 0x20 DUP3 ADD SWAP1 POP SWAP2 SWAP1 POP JUMP JUMPDEST PUSH1 0x0 PUSH1 0x20 DUP3 ADD SWAP1 POP DUP2 DUP2 SUB PUSH1 0x0 DUP4 ADD MSTORE PUSH2 0x1807 DUP2 PUSH2 0x17CB JUMP JUMPDEST SWAP1 POP SWAP2 SWAP1 POP JUMP JUMPDEST PUSH32 0x4F6E6C792063726561746F722063616E2073746F702074686520766F74652100 PUSH1 0x0 DUP3 ADD MSTORE POP JUMP JUMPDEST PUSH1 0x0 PUSH2 0x1844 PUSH1 0x1F DUP4 PUSH2 0x16B9 JUMP JUMPDEST SWAP2 POP PUSH2 0x184F DUP3 PUSH2 0x180E JUMP JUMPDEST PUSH1 0x20 DUP3 ADD SWAP1 POP SWAP2 SWAP1 POP JUMP JUMPDEST PUSH1 0x0 PUSH1 0x20 DUP3 ADD SWAP1 POP DUP2 DUP2 SUB PUSH1 0x0 DUP4 ADD MSTORE PUSH2 0x1873 DUP2 PUSH2 0x1837 JUMP JUMPDEST SWAP1 POP SWAP2 SWAP1 POP JUMP JUMPDEST PUSH32 0x566F74696E67206973206E6F7420636F6D706C65746564207965742100000000 PUSH1 0x0 DUP3 ADD MSTORE POP JUMP JUMPDEST PUSH1 0x0 PUSH2 0x18B0 PUSH1 0x1C DUP4 PUSH2 0x16B9 JUMP JUMPDEST SWAP2 POP PUSH2 0x18BB DUP3 PUSH2 0x187A JUMP JUMPDEST PUSH1 0x20 DUP3 ADD SWAP1 POP SWAP2 SWAP1 POP JUMP JUMPDEST PUSH1 0x0 PUSH1 0x20 DUP3 ADD SWAP1 POP DUP2 DUP2 SUB PUSH1 0x0 DUP4 ADD MSTORE PUSH2 0x18DF DUP2 PUSH2 0x18A3 JUMP JUMPDEST SWAP1 POP SWAP2 SWAP1 POP JUMP JUMPDEST PUSH32 0x616E6F6E796D6F75732064657461696C7320617265206E6F742076697369626C PUSH1 0x0 DUP3 ADD MSTORE PUSH32 0x652E000000000000000000000000000000000000000000000000000000000000 PUSH1 0x20 DUP3 ADD MSTORE POP JUMP JUMPDEST PUSH1 0x0 PUSH2 0x1942 PUSH1 0x22 DUP4 PUSH2 0x16B9 JUMP JUMPDEST SWAP2 POP PUSH2 0x194D DUP3 PUSH2 0x18E6 JUMP JUMPDEST PUSH1 0x40 DUP3 ADD SWAP1 POP SWAP2 SWAP1 POP JUMP JUMPDEST PUSH1 0x0 PUSH1 0x20 DUP3 ADD SWAP1 POP DUP2 DUP2 SUB PUSH1 0x0 DUP4 ADD MSTORE PUSH2 0x1971 DUP2 PUSH2 0x1935 JUMP JUMPDEST SWAP1 POP SWAP2 SWAP1 POP JUMP JUMPDEST PUSH32 0x43616E6E6F742066696E6420766F746572210000000000000000000000000000 PUSH1 0x0 DUP3 ADD MSTORE POP JUMP JUMPDEST PUSH1 0x0 PUSH2 0x19AE PUSH1 0x12 DUP4 PUSH2 0x16B9 JUMP JUMPDEST SWAP2 POP PUSH2 0x19B9 DUP3 PUSH2 0x1978 JUMP JUMPDEST PUSH1 0x20 DUP3 ADD SWAP1 POP SWAP2 SWAP1 POP JUMP JUMPDEST PUSH1 0x0 PUSH1 0x20 DUP3 ADD SWAP1 POP DUP2 DUP2 SUB PUSH1 0x0 DUP4 ADD MSTORE PUSH2 0x19DD DUP2 PUSH2 0x19A1 JUMP JUMPDEST SWAP1 POP SWAP2 SWAP1 POP JUMP JUMPDEST PUSH32 0x566F7465722068617320616C726561647920766F746564210000000000000000 PUSH1 0x0 DUP3 ADD MSTORE POP JUMP JUMPDEST PUSH1 0x0 PUSH2 0x1A1A PUSH1 0x18 DUP4 PUSH2 0x16B9 JUMP JUMPDEST SWAP2 POP PUSH2 0x1A25 DUP3 PUSH2 0x19E4 JUMP JUMPDEST PUSH1 0x20 DUP3 ADD SWAP1 POP SWAP2 SWAP1 POP JUMP JUMPDEST PUSH1 0x0 PUSH1 0x20 DUP3 ADD SWAP1 POP DUP2 DUP2 SUB PUSH1 0x0 DUP4 ADD MSTORE PUSH2 0x1A49 DUP2 PUSH2 0x1A0D JUMP JUMPDEST SWAP1 POP SWAP2 SWAP1 POP JUMP INVALID LOG2 PUSH5 0x6970667358 0x22 SLT KECCAK256 PUSH5 0x7BB9AC45EF PUSH7 0x5186AA8666D932 PUSH32 0x3DD9B71FAAE26183C5CC78B60DB096868764736F6C634300080A003300000000 "
        },
        "methodIdentifiers": {
          "endVote(uint256)": "865df0ad",
          "getAllVoterDetails()": "92bcab34",
          "getCandidateInfo(uint256)": "70f67cfe",
          "getInfo()": "5a9b0b89",
          "getVoterInfo(bytes32)": "6b959c81",
          "getWinner()": "8e7ea5b2",
          "vote(uint256[],bytes32)": "ddbf695a"
        }
      }
    }
  }
}