{
  "_format": "hh-sol-artifact-1",
  "contractName": "Events",
  "sourceName": "contracts/Events.sol",
  "abi": [
    {
      "inputs": [
        {
          "internalType": "uint256",
          "name": "adminID",
          "type": "uint256"
        }
      ],
      "name": "getPollInfoByAdminID",
      "outputs": [
        {
          "components": [
            {
              "internalType": "uint256",
              "name": "owner",
              "type": "uint256"
            },
            {
              "internalType": "uint256",
              "name": "eventId",
              "type": "uint256"
            },
            {
              "internalType": "bool",
              "name": "exists",
              "type": "bool"
            },
            {
              "internalType": "bool",
              "name": "isEnd",
              "type": "bool"
            }
          ],
          "internalType": "struct Events.pollInfo[]",
          "name": "",
          "type": "tuple[]"
        }
      ],
      "stateMutability": "view",
      "type": "function"
    },
    {
      "inputs": [
        {
          "internalType": "bytes32",
          "name": "invCode",
          "type": "bytes32"
        }
      ],
      "name": "getPollInfoByInvCode",
      "outputs": [
        {
          "internalType": "uint256",
          "name": "",
          "type": "uint256"
        },
        {
          "internalType": "uint256",
          "name": "",
          "type": "uint256"
        },
        {
          "internalType": "bool",
          "name": "",
          "type": "bool"
        }
      ],
      "stateMutability": "view",
      "type": "function"
    },
    {
      "inputs": [
        {
          "internalType": "bytes32[]",
          "name": "invCodes",
          "type": "bytes32[]"
        },
        {
          "components": [
            {
              "internalType": "uint256",
              "name": "owner",
              "type": "uint256"
            },
            {
              "internalType": "uint256",
              "name": "eventId",
              "type": "uint256"
            },
            {
              "internalType": "bool",
              "name": "exists",
              "type": "bool"
            },
            {
              "internalType": "bool",
              "name": "isEnd",
              "type": "bool"
            }
          ],
          "internalType": "struct Events.pollInfo",
          "name": "info",
          "type": "tuple"
        },
        {
          "internalType": "uint256",
          "name": "adminID",
          "type": "uint256"
        }
      ],
      "name": "uploadPollInfo",
      "outputs": [],
      "stateMutability": "nonpayable",
      "type": "function"
    }
  ],
  "bytecode": "0x608060405234801561001057600080fd5b50610a11806100206000396000f3fe608060405234801561001057600080fd5b50600436106100415760003560e01c80632df5b5a8146100465780633876fe2f146100785780635889504714610094575b600080fd5b610060600480360381019061005b9190610411565b6100c4565b60405161006f93929190610472565b60405180910390f35b610092600480360381019061008d91906106d7565b610187565b005b6100ae60048036038101906100a99190610746565b61030b565b6040516100bb9190610895565b60405180910390f35b600080600080600085815260200190815260200160002060020160009054906101000a900460ff1661012b576040517f08c379a000000000000000000000000000000000000000000000000000000000815260040161012290610914565b60405180910390fd5b600080858152602001908152602001600020600001546000808681526020019081526020016000206001015460008087815260200190815260200160002060020160019054906101000a900460ff169250925092509193909250565b60005b835181101561027257826000808684815181106101aa576101a9610934565b5b60200260200101518152602001908152602001600020600082015181600001556020820151816001015560408201518160020160006101000a81548160ff02191690831515021790555060608201518160020160016101000a81548160ff021916908315150217905550905050600160008086848151811061022f5761022e610934565b5b6020026020010151815260200190815260200160002060020160006101000a81548160ff021916908315150217905550808061026a90610992565b91505061018a565b5060016000828152602001908152602001600020829080600181540180825580915050600190039060005260206000209060030201600090919091909150600082015181600001556020820151816001015560408201518160020160006101000a81548160ff02191690831515021790555060608201518160020160016101000a81548160ff0219169083151502179055505050505050565b606060016000838152602001908152602001600020805480602002602001604051908101604052809291908181526020016000905b828210156103bc578382906000526020600020906003020160405180608001604052908160008201548152602001600182015481526020016002820160009054906101000a900460ff161515151581526020016002820160019054906101000a900460ff16151515158152505081526020019060010190610340565b505050509050919050565b6000604051905090565b600080fd5b600080fd5b6000819050919050565b6103ee816103db565b81146103f957600080fd5b50565b60008135905061040b816103e5565b92915050565b600060208284031215610427576104266103d1565b5b6000610435848285016103fc565b91505092915050565b6000819050919050565b6104518161043e565b82525050565b60008115159050919050565b61046c81610457565b82525050565b60006060820190506104876000830186610448565b6104946020830185610448565b6104a16040830184610463565b949350505050565b600080fd5b6000601f19601f8301169050919050565b7f4e487b7100000000000000000000000000000000000000000000000000000000600052604160045260246000fd5b6104f7826104ae565b810181811067ffffffffffffffff82111715610516576105156104bf565b5b80604052505050565b60006105296103c7565b905061053582826104ee565b919050565b600067ffffffffffffffff821115610555576105546104bf565b5b602082029050602081019050919050565b600080fd5b600061057e6105798461053a565b61051f565b905080838252602082019050602084028301858111156105a1576105a0610566565b5b835b818110156105ca57806105b688826103fc565b8452602084019350506020810190506105a3565b5050509392505050565b600082601f8301126105e9576105e86104a9565b5b81356105f984826020860161056b565b91505092915050565b600080fd5b6106108161043e565b811461061b57600080fd5b50565b60008135905061062d81610607565b92915050565b61063c81610457565b811461064757600080fd5b50565b60008135905061065981610633565b92915050565b60006080828403121561067557610674610602565b5b61067f608061051f565b9050600061068f8482850161061e565b60008301525060206106a38482850161061e565b60208301525060406106b78482850161064a565b60408301525060606106cb8482850161064a565b60608301525092915050565b600080600060c084860312156106f0576106ef6103d1565b5b600084013567ffffffffffffffff81111561070e5761070d6103d6565b5b61071a868287016105d4565b935050602061072b8682870161065f565b92505060a061073c8682870161061e565b9150509250925092565b60006020828403121561075c5761075b6103d1565b5b600061076a8482850161061e565b91505092915050565b600081519050919050565b600082825260208201905092915050565b6000819050602082019050919050565b6107a88161043e565b82525050565b6107b781610457565b82525050565b6080820160008201516107d3600085018261079f565b5060208201516107e6602085018261079f565b5060408201516107f960408501826107ae565b50606082015161080c60608501826107ae565b50505050565b600061081e83836107bd565b60808301905092915050565b6000602082019050919050565b600061084282610773565b61084c818561077e565b93506108578361078f565b8060005b8381101561088857815161086f8882610812565b975061087a8361082a565b92505060018101905061085b565b5085935050505092915050565b600060208201905081810360008301526108af8184610837565b905092915050565b600082825260208201905092915050565b7f4576656e7420646f6573206e6f74206578697374000000000000000000000000600082015250565b60006108fe6014836108b7565b9150610909826108c8565b602082019050919050565b6000602082019050818103600083015261092d816108f1565b9050919050565b7f4e487b7100000000000000000000000000000000000000000000000000000000600052603260045260246000fd5b7f4e487b7100000000000000000000000000000000000000000000000000000000600052601160045260246000fd5b600061099d8261043e565b91507fffffffffffffffffffffffffffffffffffffffffffffffffffffffffffffffff8214156109d0576109cf610963565b5b60018201905091905056fea2646970667358221220c93d521595be6b30a85d00e5345c9a60ed2da244679265307668ef90e76e9d9664736f6c634300080a0033",
  "linkReferences": {},
  "deployedLinkReferences": {}
}